:020000041004E6
:10000000008000204D580410395704103B5704104D
:1000100000000000000000000000000000000000E0
:100020000000000000000000000000003D57041028
:1000300000000000000000003F570410C12D041014
:1000400093130410A7180410AB180410572E0410B3
:100050009B330410DB4A041000000000035004101E
:1000600041570410DF550410EB550410D35604100B
:100070004B570410F958041000000000FB580410FE
:10008000FD580410653B0410FF580410015904107A
:100090000359041005590410075904100959041094
:1000A0000B5904100D5904100F5904101159041064
:1000B000135904101559041000000000000000003E
:1000C0000100202008437047FDB5B4B03C9802AA57
:1000D0000023002418C2069104A93B2288540F93E0
:1000E00017A8401C31900BE02300359A04A93498DE
:1000F00000F0DCFF002800D538E135980019359074
:100100003598007825280ED1002009900A900B9090
:100110000C900D900E9000210224042016900820CF
:100120001490359D0FE002AA0021C943359801F0D3
:100130000DF8040001D10F981AE1D5D50124DCE7B0
:100140000800012101436D1C28782028F8D02328BD
:100150000BD02B2804D02D2804D0302808D00AE05A
:100160002143F0E708001699ECE708000821E9E7C9
:1001700008001021E6E72A280FD136980268106897
:10018000121D369B1A601190002804D5424211922C
:100190000800169901436D1C12E000201190984A46
:1001A00009E0119B934205DA9E00F3185B001818D2
:1001B000303811906D1C28780300303B0A2BF0D3A7
:1001C00028782E2803D00020C043109027E06D1C13
:1001D00028782A2808D1369800680268001D369BC6
:1001E000186010926D1C1AE02D2802D12D226D1C72
:1001F00000E0002200201090814B0BE0002A08D183
:10020000109E9E4205DAB700BE19760030183038CD
:1002100010906D1C28780600303E0A2EEED304A8FC
:1002200001872E78310056487844FF30553000F071
:100230009FFF002801D06D1C00E0002604A83A2191
:100240004654405C682804D1287868280BD1622085
:1002500005E06C2807D128786C2804D1712004A906
:100260003A2288546D1C22A80890287869460870A4
:10027000681C3590684602781000253834D01C3848
:1002800000D157E1001F022800D853E10E3831D0C9
:10029000401F01D100F09BFC093800D14AE1801ECB
:1002A00001D100F02FFD401E01D100F0DEFC401E08
:1002B000022800D83EE1001F01D100F0D6FC401F0B
:1002C00000D18FE0401E01D100F081FC401E76D0AD
:1002D000C01E27D0801E01D100F079FCC01E01D1C4
:1002E00000F075FC00F02DFD01200990252022A9C9
:1002F000087033E06C2004A93A22885436980068CC
:100300000268001D36990860002A51D104A83B21DB
:10031000405C002849D00024E44338487844FF304A
:10032000233817E004A83A21405C6C28E6D03698C0
:1003300000680468001D369908600794002C21D1DC
:1003400004A83B21405C002814D00024E4432D483D
:100350007844B03000F016FF201A07D122AA04A971
:10036000349800F0FFFC002800D4C9E60020C04308
:1003700037B0F0BD244878448E300790EEE700BFD8
:10038000F84B0000109D002D03D5200000F01EFF4B
:1003900009E02A000021200000F020FF002801D001
:1003A000001B00E028000A90D8E7184A7A445C3223
:1003B00004A9349800F060FD0028CFD5D6E7369820
:1003C00000680268001D369908600020C0430021C3
:1003D000104004AA03C222A80790782104A800F0C4
:1003E000ABFDBBE704A83B21415C002910D00024F1
:1003F000E4434E487844FF303530ABE7D44B00003F
:10040000CBCCCC0CAC4B0000C44B0000E04B00004C
:100410003A21405C62286BD068281CD06A2847D0FB
:100420006C2806D0712855D0742833D07A2823D070
:100430006EE0369800680168001D369A1060002949
:1004400006D10024E4433A487844FF301B3881E762
:100450000F98086082E7369800680168001D369A98
:100460001060002905D10024E44331487844C030AD
:1004700070E70F98088071E7369800680168001DE2
:10048000369A10600029E3D10024E44328487844D8
:100490009E305FE7369800680168001D369A10604C
:1004A0000029D5D10024E44321487844823051E723
:1004B000369800680268001D36990860002A05D148
:1004C0000024E4431A487844663043E70F98C11784
:1004D00003C243E7369800680268001D3699086039
:1004E000002AF3D10024E44311487844423031E734
:1004F000369800680168001D369A1060002905D101
:100500000024E4430A487844263023E70F98EFE6B6
:10051000369800680168001D369A1060002997D14E
:100520000024E44302487844801D13E7544A000045
:10053000684A000036980068C31D07208343369838
:10054000036003CB369D2B6004AB03C3C80F02D0FE
:1005500009982D210AE004A8008F204202D00998B2
:100560002B2103E0C00705D50998202122AB19549F
:10057000401C099022A809994018159015980790D9
:1005800017AD04A8C0C8684600782021014368461A
:100590008170807861280BD01098002801D5062042
:1005A00005E005D168468078672801D101201090C8
:1005B00004A803C808004B005B150024E443A342D1
:1005C00012D1090310D003200A90613A1A2A03D2EB
:1005D00019497944623102E0184979445E310322B5
:1005E000159800F021FEB9E6A3420AD1000308D114
:1005F00003200A90613A1A2A19D3114979444031EB
:10060000EDE701AA04A803C800F01BFE04AA03C278
:100610006846807861281CD1079830210170811CC0
:1006200007916946097861290ED178210DE00549C5
:1006300079441031D3E700BFB8490000B849000041
:10064000BC490000B4490000582141700998801C41
:10065000099004A803C82246530802400B4004D165
:10066000002A02D10024002652E1684680786128E1
:1006700000D099E01098002801D5212000E0401C0E
:1006800015901598401C1690300039000022002368
:1006900000F0ECFD04A830C802D2802000064540DE
:1006A0000198001F019017A90A7017A8461C1698F8
:1006B000002832DD169F20002900002280235B03E2
:1006C00000F0EDFD29D81C2200F002FE04000D0010
:1006D00000F036FE1690FF1F002F09DD00F06AFEC5
:1006E00002000B002000290000F0CBFE04000D00EA
:1006F000F01D0721169A002A0ADD491E08D4401E63
:1007000013071B0F03701211F5E7401E0022027041
:10071000491EFAD5C61D002FCDDC17A83199711AD4
:1007200017AA551C159A0C00914200DD1400002CEC
:1007300033D48C4205DA411C095D082901DB0F2105
:1007400000E00021220017AB9B1801E0641E5B1E35
:10075000521E1E788E42F9D00F2904D1411C895CAB
:10076000491C401C8154002A04D517AD641C019813
:10077000001D0190611E10D46A1868460078137835
:100780003033DEB23A2E01DBC318C6331370491E74
:10079000521E0029F3D5694608701098002800D42D
:1007A000B5E0601E1090B2E07F007F0801986649B6
:1007B0004843664900F0DCFE019007200199401A89
:1007C000002805DD02003000390000F047FC0AE097
:1007D000424200205E4900F041FC02000B00300064
:1007E000390000F0F4FE6A469278662A02D1019A36
:1007F0000A3200E00622109B9A18142A00DD142207
:1008000017AB30241C705C1C02E032A803C8159A98
:10081000002A3CDD32AB03C3159232A803C800F0B6
:10082000A1FD219006460834169D30000A2100F0F3
:10083000B3FE0F0030000A2100F0AEFE0600303794
:10084000601E077030000A2100F0A6FE0F00300085
:100850000A2100F0A1FE0600A41E303727706D1E8D
:10086000E3D108341598083815900028CDDD21987B
:1008700000F090FD02000B0032A803C800F001FE5A
:100880000022344B00F004FF32AA03C2C5E73198BE
:10089000201A17A94D1C04E0401E0199491E019120
:1008A0006D1C29783029F7D069468978662902D1EC
:1008B0000199491C06E069468978652901D1012121
:1008C00000E00021109A5418A04200DA441E002CC7
:1008D0001DD4844204DA285D342801DD392100E08A
:1008E00030212200681E831801E0641E5B1E521E28
:1008F0001E788E42F9D0392902D1A95C491CA9542D
:10090000002A04D50500641C0198401C0190019E3A
:100910001595684600786946487000F021FC406AE9
:10092000007869460870109D20B2002804DC01247C
:10093000044878440E3015906846807866280BD1BC
:10094000761C23E0BC46000097750000A0860100DD
:100950000000F03F84D7974168468078672847D1E8
:1009600030B20321C943884248DBA84246DA761CEC
:1009700004A8008F1499C0B2084203D120B2A84243
:1009800000DC050030B22D1A00D500250A99079821
:10099000401837B2002F00DDB8E0491C0A91302121
:1009A0000170002D05DC04A8008F1499C0B2084224
:1009B00006D00A98411C0A9169460978079A115491
:1009C0007842854200DA6E4236B270420D90AD191F
:1009D00020B2854200DA2C0024B20B942200159933
:1009E00007980A9BC01800F01FFC281B0E90D3E04C
:1009F00068464078612818D170201BE020B2A842D8
:100A000006DA04A9098F149AC9B2114200D105006F
:100A10006D1E00D5002568464078672802D1652004
:100A2000694607E04520694604E068464078412869
:100A300001D1502048700A98411C0A9115990978F3
:100A4000079A11541598411C002D05DC04A8008F4D
:100A5000149AC0B2104219D00A98421C0A926A46EF
:100A60001278079B1A54002D10DD641E20B28542B7
:100A700000DA2C0022B207980A9BC01800F0D4FBC1
:100A800024B20A9800190A90281B0D9007980A9919
:100A9000401869464978017031B2002903D42B21EE
:100AA0004170871C03E02D224270871C4E420024B7
:100AB00014AD300008E00A2100F05AFD32AA03C24A
:100AC00029703298641C6D1C00B20028F3DC012CE4
:100AD00008DC6846407820210143652902D1302096
:100AE00038707F1C002C09D1302038707F1C07E043
:100AF000641E14A8005D303038707F1C002CF7DCB9
:100B000007980A994018381A0B9045E021B232B282
:100B100091421ADA22B2159900F086FB24B20A98A3
:100B200000190A90391B0D91002D05DC04A9098FCD
:100B3000149AC9B2114206D069460978079A11542D
:100B40000B98401C0B900E9526E0159900F06CFB5D
:100B50000A98C0190A90A41B002D05DC04A9098F6E
:100B6000149AC9B2114205D0411C0A91694609780C
:100B7000079A115420B2854200DA2C0022B215984F
:100B8000C11907980A9BC01800F04EFB24B20A98BE
:100B900000190A90281B0D9004A83821405C1421EC
:100BA0000140102901D0FFF7D9FB09980A99401894
:100BB0000D9940180B9940180E99401811998842C8
:100BC00001DBFFF7CBFB081A0C90FFF7C7FB04AA69
:100BD0003A20105C622808D068280ED06A2814D009
:100BE0006C281DD0712810D01AE03698016808686A
:100BF000091D369B1960C0B218E036980168086874
:100C0000091D369B196080B210E036980068C31D3C
:100C1000072083433698036003CB369C236006E0AD
:100C2000369801680868091D369B1960002104ABDD
:100C300003C3108F1499C0B208425BD004A803C844
:100C4000002901D1002855D06846007820210143B1
:100C500078294FD1099822A930220A54401C421CFD
:100C600009926A4612780A5444E004AA3A20105CB9
:100C7000622808D068280ED06A2814D06C281DD0AD
:100C8000712810D01AE0369801680868091D369B53
:100C9000196040B218E0369801680868091D369B53
:100CA000196000B210E036980068C31D0720834326
:100CB0003698036003CB369D2B6006E036980168BA
:100CC0000868091D369B1960C11704AB03C30029CE
:100CD00002DA09982D2109E0108F204202D00998EC
:100CE0002B2103E0C00705D50998202122AA115421
:100CF000401C099022A8099940180790684601787D
:100D0000FFF76CFB04A83A21405C6C280BD0012053
:100D10000990369800680168001D369A106022A874
:100D20000170FFF71BFB369800680168001D369ABA
:100D30001060009100200190C04310906A46FFF7B8
:100D400037FB01200990252022A908706846007809
:100D5000002801D1FFF702FB09946846007848702B
:100D6000FFF7FCFAFEB506000D001700686B696915
:100D7000401A296A401AA969401A696A401AE96941
:100D8000401AA96A401A01903820285C400710D404
:100D9000202069460870019800280ADD019C012383
:100DA0006A462900300000F081F9002860D1641EF5
:100DB000F5D13A006B692900300000F077F900287E
:100DC00056D13027684607702C6A002C09DD0123B4
:100DD0006A462900300000F069F9002848D1641EF5
:100DE000F5D1AB69EA682900300000F05FF900280E
:100DF0003ED1684607706C6A002C09DD01236A4603
:100E00002900300000F052F9002831D1641EF5D1DC
:100E1000EB69E868A96942182900300000F046F93A
:100E2000002825D168460770AC6A002C09DD012333
:100E30006A462900300000F039F9002818D1641EF4
:100E4000F5D13820285C400710D52020694608706D
:100E5000019800280ADD019C01236A462900300020
:100E600000F024F9002803D1641EF5D1002001E030
:100E70000020C04303B0F0BDF0B5A7B004000D00E2
:100E800016002F6B002F00D5854F00F0C3FC696B57
:100E9000081803A9002200230CC1812838D202922D
:100EA00006940095002425E0AF4234DB00984069A9
:100EB000401981280BD30098446307AA009906982B
:100EC000FFF750FF0290002825D400984461009855
:100ED000406905902A0001A907A8059BC01800F0E9
:100EE000A3F905984019009948613068002812D08C
:100EF000361D7F1B002F0EDD03AA316801A800F00C
:100F00002AF9050004D430680028CDD16D1ECBD558
:100F10000020C0430EE0069B009C0298002804D1EC
:100F200007AA21001800FFF71DFF002802D10021A9
:100F30006161616327B0F0BDF2B586B00400256938
:100F40006F2901D1082707E00846FFF7B9F878288C
:100F500001D00A2700E010273C2603CC083C04AA55
:100F600003C26A46127E642A03D06A46127E692A48
:100F700009D1002907DA04A803C800220023121AA5
:100F80008B4104A80CC004A803C800290DD1002877
:100F90000BD1206B002808D1082F3DD13820205CD0
:100FA000000739D53B26302035E00294009504A88F
:100FB00030C8761E0196200029003A00FB1700F089
:100FC0002EFC3032D0B23A280DDA0098825520003B
:100FD00029003A00FB1700F022FC04000D0007D1A5
:100FE000002C05D10AE06846007E8218AF32ECE79B
:100FF0000298C068009989198842DAD3029C009D42
:10100000082F09D13820205C000705D5A85D3028BD
:1010100002D0761E3020A8553C20801BA061A91963
:10102000E160216B884206DA081A2062208F1D4990
:101030000140218710E000290ED53821615C14227F
:101040000A40102A08D1616B6269891A226A891ADA
:10105000081A002800DD206207B0F0BDF8B50026B0
:10106000114F04000D00009214E0C00707D53200B4
:101070003B002000290000F00BFB04000D0000984D
:10108000401000903000390032003B0000F000FBBF
:1010900006000F0000980028E7D120002900F4BDC9
:1010A000FFFFFF7FEFFF000000002440F8B50024A1
:1010B000002B11D007000E0014001D002178B0682D
:1010C000B847B060002809D0F06A401CF0620020E8
:1010D000641C6D1EF2D104002000F2BD0020C0434C
:1010E000F9E775002048704730B45368D41803E01E
:1010F0005B1C491E641C401C042B06DA002904D02A
:10110000057825700578002DF2D1536030BC70470A
:1011100038B500290ED01D001400FFF7E5FF616807
:1011200020006A6B90470122D243811A02D0491EE7
:1011300002D004E0012000E00020C04332BD0021C5
:10114000616032BD80B5DA6B904702BD80B5064B59
:10115000FFF7DEFF02BD80B5034BFFF7F3FF02BDD3
:101160000248704700000000A032002068320020D2
:10117000C9B202788A4203D0401C002AF9D100206B
:101180007047770080B5002801D100BF07A006494D
:101190000B68002B03D022220021984701E000F0C9
:1011A0007CFB222002BD0000D0410020636F6E73E3
:1011B000747261696E742068616E646C65723A2045
:1011C000626164206D65737361676500431C01781B
:1011D000401C0942FBD1C01A70472E00C9B2521EF2
:1011E00005D30378401C8B42F9D1401E7047002084
:1011F0007047430070B4103A03D378C9103A78C0EE
:10120000FBD2530701D318C918C001D508C908C0BB
:10121000D20704D30B880380891C801C002A01D5C7
:101220000B78037070BC70478B0701D18307E1D046
:10123000124205D00B78491C0370401C521EF9D194
:10124000704710B5144600F002F8226010BD4A0045
:1012500053155B1C08D0520D06D003231B02FE3A27
:10126000D21A1305C91A70470022704730B40124FE
:1012700064054D00EC420BD85D00EC4208D80C0030
:101280001C4364000443144304D2994200D19042A9
:1012900030BC7047FCD08B42FAD18242F8E730B4C0
:1012A000012464054D00EC420BD85D00EC4208D8E7
:1012B0000C001C4364000443144304D28B4200D14D
:1012C000824230BC7047FCD09942FAD19042F8E794
:1012D000124217D40023DB435B0D9C464B005B0D91
:1012E00006D0634504D09B18634502D212058918C5
:1012F00070476246090D11430905002000B500BF83
:1013000000BF00BD52424B005B0DF1D05B1C5B0582
:10131000EED25B0D934102D91205891A70470BD1A9
:101320000B031B13C90FC907821C00204341134341
:10133000E4D912051143E1E7C90FC9070020DDE731
:10134000F4464A1805D200F00FF801D5801740087E
:10135000604700F009F80121C907884200D9080058
:10136000404260474A1812D2400DC9020843012189
:10137000C9070843520D40210901521A521C06D4D4
:1013800052421F3201D4D0407047C017704700202E
:101390007047FEE7010042221201D21E004207D030
:1013A00002D4521E0018FCD5C10A40051205891846
:1013B000704700000100EED54042F446FFF7EBFF16
:1013C0000122D207114360478B4200D1824205D9E6
:1013D0008446100062468C4619006346DF184C189C
:1013E000640D7F0D3AD0661C760537D0E61B352E8E
:1013F00034DCDB022B43DB0A0C0DC9022943C91282
:10140000202E0DDB1700203E06D01F00F741F340D1
:101410005F400026012A7741C01871410DD217E0C4
:101420001700F741F2405740F3415A40B340F340B0
:101430005A400026801859410AD3A21C52050FD0E9
:10144000C207012F724117004008CB071843490813
:10145000641C24054208AF4170416141F0BC7047F3
:10146000641C21050020F9E76B4010E06B40ABE7FE
:10147000F742F3D1E943F1E72442EFD10020002104
:10148000ECE7F0B40125ED070F005F40EED40C004F
:10149000871A9C4105D2C01BA141D2196341694002
:1014A0006B40AE0ADF184C18F442E1D2640D7F0D98
:1014B000E2D0E61B362ED1DCDB022B43DB0AA4464E
:1014C0000C0DC9022943C90A012E28DC04D1D60714
:1014D0005208DF073A435B08EF0A76429041994190
:1014E00014D039423BD1B61940414941761C3942AA
:1014F00004D1761C001849413942FAD0B9436746F5
:10150000B74208D9A41B24052143A7E70042EAD12A
:101510003642E8D1A2E7E40AE10700209EE7202E48
:101520000BDD203E1F00F340F7415F40012A0022FF
:1015300057417E42984191410BE01700F741F2403C
:101540005740F3415A40B340F3405A407E429041E5
:1015500099410A0303D2641EB6194041494100274C
:10156000641E24054208AE4178416141F0BC7047D9
:10157000CA0F00D0494203105A400DD004B500D321
:10158000404200F009F8009AD20701D349421242C2
:1015900000D5404204BD0000094214D088420FD358
:1015A0000122030C01D100041204002300185B4146
:1015B0008B4200D35B1A5241F8D3190010007047D8
:1015C00001000020704708B500F06CF908BDF0B4C8
:1015D0000E005E400125ED072E40B446AE0ADF182E
:1015E0004C18F4423BD2F74241D2640D43D07F0DF8
:1015F00038D0E41BC902DB0229432B43CF0ADB0AA4
:101600000600B61A9F4104D2641EB6197F41B6186F
:101610005F416812800D24180018844222DCE80C17
:101620000021B6197F41B61A9F4102D2B6185F4118
:101630003F1C40414941F4D3241C21DD2405B61947
:101640007F41B61A9F4105D33743C607374300266B
:10165000012F7041614166463143F0BC7047FCD1B7
:10166000F74205D20020C14349054908F3E704D0F9
:101670000020C143F1E77F0DFAD000206146ECE77E
:101680002442FAD1401C61410F03F6D30020E2E767
:10169000F0B50E005E400125ED072E40B446AE0ABF
:1016A000DF184C18F44208D2F7420ED2640D01D074
:1016B0007F0D12D100206146F0BD05D1F74201D85F
:1016C0007F0D05D10020C143F0BDFBD1640DF9D0E1
:1016D0000020C143490549088FE0E419C902DB0233
:1016E00029432B43DB0A460DC00231438E4630B4FA
:1016F00087B295B27D432E0CADB2140C7C43A41975
:10170000260C240425439CB27C43A419190C79436C
:10171000270CC919A4B20F043C43090C000C97B262
:1017200047432E0CBE193543ADB2170C4743360C58
:10173000BF19A6B2BF193E043543240C3E0C36191E
:101740009FB24743BF19BCB23E0C89191F0C4743D7
:101750007F183E043443390C704680B297B2474339
:101760002E0CBE193543ADB2170C4743360CBF19CA
:10177000A6B2BF193E043543240C3E0C36199FB265
:101780004743BF19BCB23E0C89191F0C47437F1851
:101790003E043443390C77463F0C90B278432E0C0C
:1017A00080190604ADB22E43050CA0B22D18120C00
:1017B0007A435019020C80B2240CA4189AB27A43CE
:1017C000121914042043120C89181B0C7B43C918EE
:1017D00030BCEF0A394203D1B61940414941641E79
:1017E0006F12BF0DE41B0BDBFF19BC4211DA24059D
:1017F00000274208AE417841614166463143F0BD61
:10180000641C05D1401C6141CF0201D34908F4E7B3
:1018100050E75DE780B5FFF765FC006C02BD124242
:101820002DD0994231D970B500251B4209D00C004A
:10183000002112E01100FFF7AFFE0A000021002393
:1018400070BD0942F6D00024012649186441944233
:1018500000D3A41A7641F8D33100012601E0764185
:1018600009D2001864416D41A41A9D41F7D2A41811
:101870005D41B619F5D3300022002B0070BD1B422C
:10188000CFD108B500F010F808BD01D19042CAD2FE
:1018900002000B0000210020704780B5012000F0FD
:1018A00005F801BD7047FEE77047FEE780B500BF51
:1018B00000BF024A11001820ABBEFBE72600020061
:1018C00004490A680F239A430007000F1043086079
:1018D000704700002805004980B5002000F0EAFFAD
:1018E000036800BF03A200BF04A100BF07A001F06E
:1018F0004FFA01BD76616C75650000005265616448
:101900005265676973746572000000007B264E2083
:101910007574696C6974792063616C6C2E2E2E204D
:10192000267434787D0D0A0010B5002000F0C2FF47
:101930000400012000F0BEFF206000BF02A100BF34
:1019400005A001F025FA10BD5772697465526567EC
:1019500069737465720000007B264E207574696C93
:101960006974792063616C6C2E2E2E7D0D0A000047
:1019700080B501F02EFA030003A200BF04A100BF4E
:1019800006A001F005FA01BD74696D6572000000E2
:10199000436C6947657454696D6572007B264E20FF
:1019A0004150492063616C6C2E2E2E267434787D54
:1019B0000D0A000080B501F027FA00BF02A100BFA8
:1019C00005A001F0E5F901BD436C695265736574CA
:1019D00054696D65720000007B264E2041504920FD
:1019E00063616C6C2E2E2E7D0D0A0000F6B5CFB013
:1019F00004000020694688824882079000210AAAD4
:101A000003C250A80078002806D00023FF22A64970
:101A1000022000F067FF0990A44801F0B9F9A4483A
:101A2000A4A1A54AA54BA64D50AE3678002E05D0F0
:101A3000A4A60396A4A60296A44E04E0A44E039680
:101A4000A44E0296A44E0196009501F089F9022059
:101A5000FFF736FF01F0BDF90390002001900090E0
:101A600000239E4A03999E4801F092F90C949D48E8
:101A7000056801F0AEF906900A20284000D1DBE0AD
:101A80009848C068C005C00D694688809548C069FF
:101A9000944989690E91944909680A22914B1A6008
:101AA00082B2FF2A01D9FF2000E080B202907E4876
:101AB00050AA1278002A51D0029A0023D2B20446CA
:101AC0000FA804E0E55CCE5C6E40C6545B1C9342FC
:101AD000F8D300240021854D03E0435CEB5CE4185F
:101AE000491C9142F9D3002C684604D0808A401CDE
:101AF0006946888203E0408A401C694648826846FD
:101B000080881421FFF734FD80B20D9068468088EC
:101B10001421FFF72DFD68460170012000210027E8
:101B20000D9E04E00A22002301F07CF97F1CBAB26A
:101B3000B242F7DB0AAAC0CA6A4612785200AA1853
:101B400080235B00D25A002301F06CF9801979419F
:101B50000AAA03C207980019079008E02A0701D5CE
:101B600063A200E066A20892029AFFF75DFB0220E2
:101B7000FFF7A6FE50A80078002818D10E98009014
:101B800068468388089A06995FA001F001F900254C
:101B9000A94F454E029C04E0715D380001F05CF9EC
:101BA0006D1CA542F8DBA54801F0F2F80FE00298A1
:101BB000099988420BD001F00CF901000020019036
:101BC0000090029B56A200BF64A001F0E1F84549D5
:101BD00008680A2202400CD0CC6801F0FAF8002113
:101BE00001910091E305DB0D51A201005BA001F022
:101BF000CFF804A801F0E8F9002800D137E76846DB
:101C0000007C652800D032E7079803906846808AF8
:101C100002906846408A01900AA803C800900AA86A
:101C20000CC8874A069900BF44A001F0B1F805200E
:101C3000FFF746FE51B0F0BD48A4824828400ED0C0
:101C400001F0C7F80021019100912B007EA2010054
:101C5000200001F09DF87B4822490860C9E7680729
:101C60000BD5002001900090002300BF42A20699EE
:101C7000200001F08DF80420EEE70C980028B8D081
:101C80000699039A891A8842B3D207980390684646
:101C9000808A02906846408A01900AA803C8009092
:101CA0000AA80CC836A2BDE770400020B454041046
:101CB0003452041072780000802304102C52041057
:101CC00064200410424552006261640050520410C6
:101CD0008C21041060520410585204108C230410FC
:101CE0005C1D04100006004914040049504E041005
:101CF00072782028637263206572726F7229000007
:101D00007278206F6B0000007B26347820267320C9
:101D100026327820263478207B7D207B000000004E
:101D2000696E76616C6964206C656E67746800002A
:101D30006F766572666C6F77000000007B263478E2
:101D4000202673207B2534782534787D2026327830
:101D500020263278202634787D0D0A007B263478C0
:101D600020267320263478202632782026327820C8
:101D70007B7D7D0D0A00000074696D656F757400D0
:101D800074696D6520657870697265640000000093
:101D900010B5002000F08EFD0400012000F08AFD47
:101DA000012208E010B5002000F084FD04000120AD
:101DB00000F080FD002201002000FFF717FE10BD9B
:101DC000F8B500269F4F8020C00238600F24E443FE
:101DD0009D4D286820400221014329603868400356
:101DE00009D4684601F0F0F80028F7D0684600787A
:101DF0006528F3D1012633002868044005202043DC
:101E0000286000BF10A200BF11A100BF12A000F007
:101E1000BFFFFE69B6B28D4804680025064F04E096
:101E2000615D380001F018F86D1CB542F8DB03481D
:101E300000F0AEFFF1BD000078240410A0210410D2
:101E400080240410000240016572726F720000006D
:101E500052784461746100007B264E2063616C6C93
:101E60002E2E2E26743478207B646174613A000033
:101E700070B588B0002000F01DFD0790012000F033
:101E800019FD029071488168FF2901D9FF2200E005
:101E900082680023D2B20168022000F023FD6C4862
:101EA00000F076FF6B4B6C4A6CA100BF36A000F0CF
:101EB00057FF00F08EFF6A4A010000BF36A000F015
:101EC00067FF00200190012404E0002E59D1019801
:101ED000401C019001980299884201D3002950D1F9
:101EE00000F077FF0199002905DD491C029A914213
:101EF00001D1012100E00021079A82180392824259
:101F00009241D20F504B1B680F25AB4323434E4DDC
:101F10002B60012620A506900591049200F059FF40
:101F20000699884202D30499002902D10399884274
:101F30001DD24448006820400CD000F04AFF010048
:101F400018A2280000F024FF00263E4804600598EF
:101F50000028BCD1684601F037F80028DED068467A
:101F600000786528DAD100F034FF7E4A05E0012EC2
:101F7000ABD100F02EFF00BF0CA20100280000F042
:101F800007FF08B070BD0000237B264E202674207A
:101F900026747D0D0A0000007B2634782026737D90
:101FA0000D0A00005458204F4B0000007478206543
:101FB00072726F7200000000FEB5002000F07AFC23
:101FC0000400694800F0E4FE2248009025A3224A5C
:101FD00026A1664800F0C4FE322C01D2644D03E015
:101FE000FA2080004443250000F0F3FE040000BF07
:101FF00021A71B4B00222100380000F0C9FE661902
:1020000021A0019000F0E5FE0400B44209D3594834
:10201000006859A3C002C20D2100019800F0B8FE6B
:102020006619684600F0D0FF0028EBD068460078BB
:102030006528E7D121004B4B0022380000F0A8FEB4
:10204000F7BD0000000600492805004914040049B6
:10205000605404102C520410802304107478000083
:102060008C230410727373690000000052535349AB
:102070004C697665000000007B2634782026347891
:102080002026737D0D0A00007B26347820263278C6
:102090002026737D0D0A0000F8B588B004A800BFA3
:1020A00036A11022FFF7A6F8B04800F0D5FE00BF19
:1020B00036A00090AE4BAF4AAFA12C4800F050FEC6
:1020C000AE4EC348B064F06801210143F16000F0F6
:1020D00080FEC04A010000BF33A000F059FEBE4F91
:1020E000B46C00F076FE0390A00F0C21214024D0A8
:1020F000316809030C0FB649B164F1690191316A85
:1021000002910121F2680A43F260F2680A40F9D0B4
:1021100004A980000A5803991EA000F039FE00258A
:1021200005E001A8415D380000F096FE6D1CA54257
:10213000F7DB00BF1AA000F08FFE684600F044FFF6
:102140000028CDD0684600786528C9D1054A039992
:1021500015A000F01DFEF06801218843F06009B071
:10216000F0BD000080240410DC5404101852041048
:1021700050C300000C0600496F6B0000001D0410E6
:102180002C580410245704103C5804107061796CCA
:102190006F6164007B263478202673207B0000006A
:1021A0007D7D0D0A000000007B26347820267320F8
:1021B0007B7D7D0D0A000000F7B5ACB01C00002649
:1021C00069464E71854800F0E3FD694800902E9BFA
:1021D0006BA22D99824800F0C3FD0220FFF770FB2F
:1021E00000F0F7FD010000BF68A200BF6BA000F087
:1021F000CFFD7C4880680090202801D220200090EC
:102200007948002C0BD0009920398C4200D30C0067
:10221000016889B2A142FBD30520FFF751FB724848
:102220000068714909684900490C079180B2801B18
:102230000099FFF7B1F989B203916946CE802CA8C5
:1022400040882CA9098848430690069834A9098833
:10225000491C484302901FE00598A1B2415C0498D4
:1022600000F0FAFD641CA0B2A842F5D35F486946AD
:1022700049798900415800BF46A000F089FD6846B1
:102280004771029830180099FFF786F90E000398FD
:102290000299401A80B2039003980299884234D37D
:1022A0005048076834A800880A902CA84588008800
:1022B0000990002414E020006843801904900898D5
:1022C000049940180099FFF767F9785C0599049A1A
:1022D0008854761CAE42EED3089E0A980419641CFA
:1022E0000BA805900998844202D208960026F1E7CF
:1022F00000F06FFD069D01005DA000F049FD002784
:10230000002400BF5CA00490ADE7374A106838494C
:102310001268130C0A001A40079B9A420FD001233F
:102320006C466371079B5B1C19408A4207D1694662
:10233000C98880B2884202D200206946487101A84B
:1023400000F042FE002800D169E768460079652860
:1023500000D064E700F03DFD49A201000FA000F0AD
:1023600017FD0520FFF7ACFA2FB0F0BDB4540410F0
:102370002C5204108023041077727800001000495A
:1023800074696D657374616D7000000073746172BF
:10239000746564007D2026737D0D0A007B263478E9
:1023A000207B7D2026737D0D0A0000001FB50020D4
:1023B00000F080FA0400012000F07CFA042101AA58
:1023C000518020216A46918030A1029109A124E028
:1023D0000F0000C08C230410782404105055041002
:1023E00018520410140400491C060049043200204D
:1023F000FF7F0000495100001FB5002000F05AFA8D
:102400000400012000F056FA012101AA5180202188
:102410006A4691801FA1029121A1039180B2009090
:10242000230001A807C8FFF7C7FE1FBD1FB5002086
:1024300000F040FA0400012000F03CFA012101AA5A
:10244000518020216A46918017A102911AA1E4E7E8
:10245000F8B5012001A948806946888000200090D5
:10246000002301A807C8FFF7A7FE05B000BD0000C4
:102470007B263478207B0000253032780000000075
:10248000757365722061626F727400004951447502
:102490006D700000536F667453796D44756D7000F4
:1024A0005353594D000000004672657144657465D0
:1024B000637444756D70000046444554000000008C
:1024C000002086490870864A8A181080854BC918F2
:1024D000087088749070FF20D0707047612801DB0D
:1024E000572108E0412801DB372104E03A2801DACE
:1024F000302100E00021401AC0B270477749081827
:102500007849401841780078081AC0B2704773497A
:102510000818744A805C0818401C7047F8B584B0ED
:1025200000220292B04A03920700684641706B4C49
:1025300040E03878694608707F1C68464078401E45
:102540004870684600780D2834D00126002069467E
:1025500009780A2946D10296002500212278002A0E
:1025600007D0022A5ED053D3042A00D189E05CD37D
:1025700020E00298002832D1002D1BD1002941D043
:1025800002262670019805888020C000854237D039
:102590002078012805D16846007800F08CF869465B
:1025A0000870684600786119487001980088401CDE
:1025B000019908804A4820180190002F684607D1E9
:1025C00000F0B6FE002806D00128BAD0012054E061
:1025D00040780028ADD10298C0B205B0F0BD00F03F
:1025E00083F8E7E7029069460978202901D101259F
:1025F000B3E70025694609782229AED10121ADE76C
:1026000006203AE0684600787B28BAD10326B8E76E
:1026100002990D432D06B5D00399097811293CD1B3
:1026200003202AE00029F7D1ACE72D496118C978C9
:102630006A46917069468978FF2900D1002669466B
:1026400009787D2902D1002E16D1E5E70846FFF76B
:1026500045FF10280EDA002E09D069468978090155
:10266000081869460870FF200199C8708AE7019927
:10267000C8709FE7002D9DD1052001998870042026
:1026800020700298002895D001988078002801D009
:1026900000F04EF9FFF714FF8CE7491C039A117004
:1026A000019A1288C9B26118A54BCA5420700298C9
:1026B0000028F1D093E7010041391A2901D22030D6
:1026C000C0B2704705498322D2008A5C8018C0B22C
:1026D00008189B4A805C081840787047F032002048
:1026E0001404000001040000FEB5964800216A466B
:1026F00011713D490978002901D146E040680290F6
:102700006846007940B2FFF702FF0700684600798B
:10271000FFF7F4FE040002E00298103002900298E5
:10272000406800282AD0029805683E000CE0307806
:10273000FFF7C1FF00902878FFF7BDFF0099C9B2ED
:102740008142E9D16D1C761CF01BA042EFD12878A4
:102750000028E1D10298002810D069460979491C67
:102760006A461171816809786E29C7D0694609796E
:102770001D4A517100240090174616E002201A49A4
:10278000C8701948C07800F0D3F8FFF799FEF7BD7C
:10279000072600E00326FE70F878002844D168463A
:1027A0000079401C69460871641C0098806839787B
:1027B0006A4612798A422ED2FE78E1B2455CE0B2D6
:1027C000FFF780FF2900E5D062391ED0113902D011
:1027D000891E0229DCD8752D01D1FF250CE0762D4C
:1027E00004D1594D08E000BF03370020732D01D1FB
:1027F0007F2501E00025ED430121E0B200F01DF846
:10280000FE788542C7D20426C5E72228C3D07B289C
:10281000C1D00526BFE7009C7A79891A405C002860
:1028200003D00320F870ACE7009CF8780028A8D10A
:102830006068804745480460A7E7FEB50C0044493E
:102840000191444A8918897840180199C3B2CA187D
:102850003B4BD25C89184D1CC0B2FFF74FFE0026DF
:102860006B461C700295070000240A2506E0002C28
:1028700014D1102501E06C432418761CBE4217DAEF
:102880000298805D69460978002903D0002E01D1A5
:102890002D28F2D07828EAD05828E8D0FFF71EFE7D
:1028A000A842E8DB052001992A4A88540020FEBD91
:1028B0002000FEBD80B50021FFF7BFFF02BD70B54F
:1028C0000C00254909784518C643F60F002C04D0A2
:1028D000E8B2FFF713FE801B207068B2FFF717FE07
:1028E000801970BDF8B50E0014001D006946FFF791
:1028F000E6FF0700200069460978884200D90800F1
:1029000069460870002D03D068460078241A00E05C
:102910000024E1B2300000F037FD6846027839004B
:10292000E4B23019FEF780FC68460078F2BD000082
:1029300080B50A498000095809A000F08DFA01BD50
:102940000104000050000020FFFF0000C8410020EB
:10295000F03200201604000008370020300000206C
:1029600025730D0A0000000038B50500286A291DEE
:10297000441AE1B2281D2A689047010006D0292098
:10298000285C00192922A854281D286214E038B5B3
:102990000A00002400E0641CE1B2515C0029FAD175
:1029A0000500E1B210002A689047010004D02920F8
:1029B000285C00192922A854080000D0012032BD4B
:1029C000F1B586B00E0015000020694648800698D3
:1029D000001D069908620698143006994862002086
:1029E00006992922885420E00698016208E068468A
:1029F0000078002804D00698001D06990862160089
:102A0000002C06D00698006A411C069A11627D21AE
:102A100001700698006A0699496A884204D30698AC
:102A2000FFF7A2FF002877D0761C3178002900D16B
:102A30008CE10A484278252915D0262913D07B2914
:102A400003D07D2901D023290AD1002AE1D006989C
:102A5000006A421C069B1A62DAE700BFEB320020D4
:102A600080780028F2E7761C3378252B01D0262BBE
:102A700006D10698006A411C069A11623178C7E7B0
:102A80007B2026290DD1002A0BD001246E2B16D0D5
:102A90004E2B14D00699096A4A1C069B1A620870CC
:102AA00000E0002400216A46117031784E2906D0DA
:102AB00054292BD06E2902D0742927D044E02F68E6
:102AC0002D1DB24909780029A3D0210007D006990D
:102AD000096A0870881C069A1062282048700698B7
:102AE000FFF742FF002817D039000698FFF74FFF85
:102AF000002811D0002C8CD00698006A2921017082
:102B0000811C069A11627D21417082E72F682D1D7C
:102B10000698FFF729FF002800D188E039000698C1
:102B2000FFF735FF0028F7D00698FFF71DFF0028B4
:102B300076D00698006A411C069A11623A2101700B
:102B4000012069460870761C3078D030C0B2019000
:102B500070780199891E052933D2642801D075281F
:102B60002FD1002729682D1D89B26B46598001227B
:102B70000392642805D1080403D50127C843411CEA
:102B800089B2002908D008007F1C0A21FEF7F0FC5A
:102B900080B2002801D0F7E77F1C0698006AFFB2D8
:102BA0000199C91B029101998F4206DA0700202280
:102BB000029900F0EBFB0298381806990862761C1F
:102BC00001E000200390721E317878200B0000D1C4
:102BD000B6E0322900D0342900D187E0482972D0EC
:102BE000582978D063290CD0642923D068296AD069
:102BF00070290FD073290DD075291BD078296AD080
:102C0000F5E60698006A411C069A116229682D1D96
:102C10000170F5E62F682D1D0698FFF7A5FE002828
:102C200005D039000698FFF7B2FE0028F1D1002048
:102C300007B0F0BD0398002802D06846478802E03C
:102C40002F682D1DBFB20698006A0190002F03D196
:102C5000411C30220270C7E600226B461A7003AA9C
:102C6000029264290ED1802109020F420AD0421C2F
:102C700001922D2202708F4204D038004742BFB229
:102C8000002F12D038000A21FEF772FC02986A4623
:102C90001278815468460078401C694608703800F4
:102CA0000A21FEF765FC87B2EAE7019968460078D9
:102CB0000200501E1206CED0029AC3B2D25C30324D
:102CC0000A70491CF4E70699096A30220A708A1CC6
:102CD000069B1A62487029682D1D0222C9B2069807
:102CE000006A00F0CDF80699086289E6761C327811
:102CF000711E682A01D0482A11D1069A126A30231F
:102D00001370931C069F3B6250700698006A097806
:102D100032290AD129682D1D042289B2E1E7782AD7
:102D2000F3D0582AF1D00E006AE62F682D1D042238
:102D3000390C00F0A5F8069908620422B9B2D0E770
:102D400068460078002800D051E658E60698FFF75C
:102D50000BFE002800D16AE706982921405C67E74E
:102D60000EB410B58BB00100012413480078002880
:102D700001D1012009E0114800900DAA6846FFF733
:102D80001FFE002800D10024200010E0EB320020BC
:102D90000EB410B58BB001000124084800900DAAB4
:102DA0006846FFF70DFE002800D1002420000BB07C
:102DB000019910BC04B00847EA320020A12F04108A
:102DC00080B514480168491C0160006800F0E4FA0D
:102DD00001BDF0B5104C20680E480568A668216852
:102DE000C903FAD4FA27BF007D430C4800683900B4
:102DF000FEF7D2FB3900FEF7CFFB01006068801BB5
:102E0000FEF7CAFB2818F0BD0020024908600449FB
:102E100008607047CC41002010E000E0183200202C
:102E200018E000E030B4434351435D18010C0C003E
:102E3000130C5C432D1980B2434392B251430024DA
:102E4000C918644124040B04090C09195043C01823
:102E5000694130BC7047FEE70EB4C0B5020003A85C
:102E600001900020009001AB0121044878440C300F
:102E7000FDF72AF9029906B0084700BF4128000073
:102E800050B5130080180BE0372406E00E07360F0C
:102E90000909401E0A2EF7DA3024341904705B1E2B
:102EA0001C06F3D1801850BD10B5040002E000F0FC
:102EB00075FA641C20780028F9D1012010BDF8B5FE
:102EC00013880024002B01D08B4200D3047007002C
:102ED0000D00160005E03088411C318069460978F4
:102EE0003954684600F024FA002854D06846007827
:102EF0008028F6DA3088002807D1694609780A293F
:102F0000EFD0694609780029EBD0A84208D3348075
:102F1000684600780D28E4D0684600780028E0D0A4
:102F2000308869460978082909D10028D9D0401E7F
:102F3000308080B23C5419A0FFF7B6FFD1E7801C67
:102F4000854202DA0D20694608706846007800F074
:102F500035F86846007861381A2804D26846007847
:102F6000E03069460870684600780D2803D068464E
:102F700000780A28AFD131887C54684600780D2843
:102F800003D10A2000F01AF803E00D2000F016F833
:102F90002C0034800120F2BD000000000820080051
:102FA00070B5002504000E0003E0205C00F0F6F987
:102FB0006D1CE8B2B042F8D3012070BD01B501210B
:102FC0006846FFF7EDFF02BD80B500F0B1F902BD24
:102FD000010005D40121C006C00E81405A4801609D
:102FE000704710B5C20018231340FF249C40E243F1
:102FF0008907090E9940030004D454489B089B009C
:10300000C01806E0524B0007000F08388008800007
:10301000181803681A401143016010BD30B5030051
:10302000080014001D6800F0DBF900F0E3F940002F
:10303000032181408D4384402C431C6030BD436894
:103040008B43514319434160704730B5030008007A
:1030500014009D6800F0C4F900F0CCF94000032191
:1030600081408D4384402C439C6030BD30B5CB43C0
:10307000384C9025ED05A8421AD1002A03D0022A27
:103080000FD007D330BD206818402060606803402F
:10309000636030BD60680340636020680143216065
:1030A00030BD20680340236060680143616030BD2B
:1030B000002A03D0022A0FD007D330BDA0681840E1
:1030C000A060E0680340E36030BDE0680340E36077
:1030D000A0680143A16030BDA0680340A360E06820
:1030E0000143E16030BD81B01B490A6802430A60B8
:1030F000096808400090009801B0704738B5050095
:1031000001D1042000E00820FFF7EDFF6248A9008C
:1031100044186900451801222988A068FFF77EFF3E
:1031200000222988A068FFF78AFF02222988A06868
:10313000FFF78BFF01222988A068FFF797FF2888F7
:10314000A1688861002032BD00E100E000E400E0F9
:103150001CED00E02000504850004048FEB50E0035
:1031600000210191002E03D10120C043019091E084
:10317000694608700420FFF7B6FF9024E405022298
:1031800002212000FFF74AFF022202212000FFF760
:103190005CFF002202212000FFF751FF6E4F78688C
:1031A000022188437860386801433960206AF02141
:1031B00088431021014321620420FFF794FF8025FA
:1031C0002D02022229002000FFF728FF02222900F9
:1031D0002000FFF73AFF002229002000FFF72FFF11
:1031E00078685E4901407960386805433D60606AEF
:1031F0000001000980214905014361628020C0006F
:1032000057490A6802430A60096808400290029818
:10321000316854486A4612789200801884684808D9
:10322000514A8018FEF7B8F980B2E0600820305E9D
:103230000A21715E726823684C4D1D4029430A4380
:10324000226061684A4A0A401043606020680C218D
:10325000014321600C20305EA168464A0A401043B9
:10326000A060A06844490140A160A068C000C008F7
:10327000A0602068802189050143216060683F4982
:1032800001406160A0682A218843A0602068012174
:10329000014321600198FEBDF031002002000020B2
:1032A0000B0000D1704780B52E4841609100401856
:1032B0008068016820220A43026001210820FFF78C
:1032C00090FE0820FFF784FE0120C04302BD25497F
:1032D0004A68002A00D1704780B5800008188068CD
:1032E000C169890605D5406A6946087001216846AA
:1032F000904701BD22490A68224B9854521C8020F5
:10330000C000824200D100220A60704710B5100050
:103310000022144B1C78A4001B199B6805E0DC6993
:103320002406FCD58C5C9C62521C8242F7D310BDF3
:1033300013494A680B68934201D100207047114B32
:103340009B5C0370521C8020C000824200D100228E
:103350004A6001207047000020005048FF7FFFFFB7
:1033600058004048E43100200024F400FFE9FFEF5A
:10337000FFCFFFFFFFFCFFFFFFFFFFF1FFB7FFFFE6
:10338000C0410020103B0020002200BF094202D0B3
:10339000491E4254FCD170477047FEE780B50D4985
:1033A000794430310C4A7A442E32914203D00B4991
:1033B00000BF00BF02BD6946087001220120FFF76F
:1033C000A5FF012802D16846007802BD0020C04355
:1033D00002BD00BF2CCCFBEF28CCFBEF203200203D
:1033E0001F22410804D0521E490840410029FAD149
:1033F00090407047010000200A0C01D110300904F0
:103400000A0E01D1083009020A0F01D1001D09017D
:103410008A0F01D1801C8900490002D200D4401CCF
:10342000401C704770B5040015001E00A04800BF86
:1034300010A20904C90B515AFEF7AEF87108802298
:10344000120295420CD1400040183100FEF7A4F85A
:1034500080B2074901400007400F0143E16070BDA1
:1034600040183100FEF798F880B2E06070BD0000AF
:10347000F0FF0000010002000400060008000A003E
:103480000C0010002000400080000001F0B5894CC5
:10349000A5440020FFF70EFA06900120FFF70AFA74
:1034A0000400C748FFF7D8FCC648FFF7D5FCC6485C
:1034B000FFF7D2FCC548FFF7CFFC2100C448FFF757
:1034C000CBFC0698002802D0C248FFF7C5FC0020BC
:1034D0000B90C148C168002905D0080403D0744886
:1034E000FEF75AF80B90BC48C0694006FBD5230094
:1034F00000220021B848FFF795FF0698002801D068
:1035000000F04CFAB54840681090B44880680F90BD
:10351000B248C0680E90B248806880210906014315
:10352000AF488160002069464871AE490860059047
:103530000A9011A801003031A84A5160AA494018E8
:10354000114688600846C068000C0004A749014382
:103550001046C160002003900490089011A9A44A6D
:1035600042438918A34A4A60A34A8A60401C05283E
:10357000F4DB9A4800687021884330210143974862
:103580000160F830006A0F2188430221014394480A
:103590000162002000210CAA03C2D6480069C00FB6
:1035A00069460871002007908871D3480068099027
:1035B000D248029001248A4F099E884D33E0426828
:1035C00000680260F8E0386A0F2188430221014355
:1035D000396202984068002825D00698002822D039
:1035E00000F099FA00281ED000F0A0FA0398049980
:1035F000884202D10898002815D00898002802D0E7
:10360000CD48FFF729FC7A4911A8049A4A4380184B
:1036100000F062FA0498401C0521FDF7A9FFC9B229
:1036200004910020089068460079B2490969C90FE1
:10363000884200D0E2E001A8C01CFFF7C5FC0028CA
:10364000C7D06846C079012469464979002965498F
:103650000FD14A780A708A784A70CA788A70C8701E
:103660000868644988421CD10420059069464C7161
:10367000AFE7059A88540598401C0590B428A8D354
:103680000020694648710021C94300225548805CEA
:103690004840010008204B0821400DD0A74959405F
:1036A0000BE0A749884294D169468C7191E700BF2D
:1036B0000024F40034C4FFFF1900401EEBD1521C5B
:1036C000B02AE3D3C843029909688842EED145483D
:1036D00040680A90A8229B499B48FDF78BFD386AF9
:1036E0000F2188430521014339620298806800F068
:1036F000C3FA0298C06800F06FFA9448C06980214C
:1037000088430299097CC9018022114001438F48F6
:10371000C161686A400040080299497CC9070143B9
:1037200069620298807C894909681F229143C20618
:10373000D20E0A4385490A60096880229143C0017C
:10374000104008438149086000F08AFB0600029897
:1037500040690A21FDF720FF00040090300003219A
:10376000FDF71AFF01000098FDF716FF0A214843F4
:10377000E969774A0A400104764B0B401343EB6139
:10378000E969490B4903C004C00C0843E861029889
:10379000806900F02DFB002100261248CA00801825
:1037A000CC300268002A07D0B7231B06D2182303A7
:1037B0009A4200D203E70126491C1029EDD302E703
:1037C000DC4A04102C4B0410784B0410A44B04105A
:1037D000F44B04103C4C041000400041100400491C
:1037E00008050049103F0020180C0000B80B00002D
:1037F000E80B0000D9353F41EE020000099603981E
:10380000C0B200900398401C0521FDF7B1FEC9B27B
:10381000039108460499884200D10894401C052170
:10382000FDF7A6FEC9B233480069C00F6A461071A1
:1038300011A8494A51434018303069460979002996
:1038400001D0686000E0A86011A8039951434518B1
:103850000CA803C8E8600CA803C80022401C514112
:103860000CAA03C20A9868613C4839680902090F2A
:1038700022008A40D100FDF77BFEA8611D48006848
:10388000C002C00DE8612E620798286100220792ED
:1038900002984068002826D168468079002800D127
:1038A0008AE63846016A0F22914305220A430262E2
:1038B0002B48C1694906FCD509990F4A11600B9B39
:1038C00000220021FFF7AEFD0698002801D000F08D
:1038D00033F92448109941600F9981600E99C160B5
:1038E00021488544F0BD06980028D5D11A4B002008
:1038F00012E000BF0C0600496C400020C03F0020D1
:103900001A496D462D790E69F60FB54204D0401C58
:103910000969C90F6D4629711149CD696D06EFD549
:1039200011AD009E5E43AD19AD5C8D62521C9A4292
:10393000F2D30790B0E700008C4C04102083B8ED60
:103940007E2E7E2E183F0020C43F00203800004904
:10395000FFFF00E00000FF1FE80B00000024F40060
:103960000040004110040049CC3B00000C06004917
:1039700086481422514340181438016801229143AB
:10398000016070479120C00589004018001F016840
:103990001F2399430A43026070470000F0B591B0BD
:1039A0002822002107A800F065FA182200216846A5
:1039B00000F060FA764901208A6802438A608A68CA
:1039C00002400692069A0A6802430A6009680840A3
:1039D000069006988020000100900226019603249C
:1039E000029400250395049605946A4F69463800B1
:1039F00000F04AFAF00100900196029403950496B3
:103A000005946946380000F03FFAF00200900196F4
:103A1000029403950496059469469020C00500F031
:103A200033FA5D4C052203212000FFF7ABFF206B2A
:103A30005A490140102008432063206B5849014037
:103A4000300308432063206B202188432063206BD0
:103A5000402188432063206B802101432163206B38
:103A6000504901402163206B4F49014021630522E9
:103A700003212000FFF786FF206B304320630827D7
:103A8000206B38432063494C6068064366600795A5
:103A900008950A950B95F8030C900E950F95072045
:103AA00010900002099007A9200000F09BFA6068BE
:103AB0001021884360606068074367603C48016884
:103AC0003C4A0A408021C9011143016080208002E4
:103AD0003949086011B0F0BD30B5384A1468384B28
:103AE000384D2540102D02D1D060936001E09060E8
:103AF000D3605068000C000401435160002032493B
:103B000008702A48016840230B43036010680121B4
:103B10000143116030BD2C480078002805D02B48A7
:103B200000680106C90F01204840704780B5032195
:103B30001948FFF71DFF01BD0220C0431F490A6855
:103B400002400A600A6808239A430A6020490A680A
:103B50001040086098031F490860BFF34F8FBFF300
:103B60006F8F704780B50C480168890506D58021A4
:103B70004900416001201449087001BD0168090530
:103B8000FBD50321FFF7F4FEFEE7000008007048B4
:103B9000500040480000104800007048EFBFFFFF91
:103BA000FFCFFFFFFFFCFFFFFFF3FFFF00200041FF
:103BB00010E400E0FF00FFFF00E100E0300070488B
:103BC0000C20004110400000E83200200820004195
:103BD0000420004180E100E0FEB5070021483818CC
:103BE0002149884201D2042400E0082400F038F979
:103BF000060000F035F901901C4D29681C4808406A
:103C00000090200078433100FDF7C6FC0006010952
:103C10000098014329602868060D36052000002120
:103C20003A000023FFF7FEF80905020B11430005D7
:103C3000019A0023FDF7F3FD0003000B30432860D9
:103C40006869FF218843686128680A490140A00526
:103C5000000E401E80078022D205104008432860D5
:103C6000F7BD0000803DC4CE0129DE070C050049E8
:103C7000FFFF0FF0FFFFFFBFF8B586B0060000F0B2
:103C8000EFF80321FDF788FC059000F0E9F8032127
:103C9000FDF782FC4B4C002501902806801520582A
:103CA0000021019A0023FFF7BDF8474A0023FDF7E2
:103CB000B6FD864203D26D1C68B26328EDDB684610
:103CC0000570694600200856002833D000200C56A5
:103CD00000256019AF00411E63290FD239498000C9
:103CE0000818001F00680021019A0023FFF79AF8C6
:103CF000354A0023FDF793FD301A00E0334802A94E
:103D0000C8516D1C032DE4DB0021C94300226B4622
:103D1000985602AB95005B59002B01DC5D422B00ED
:103D20008B4202D21900A018401E521C032AF0DB5D
:103D30006946087000200C56214F39682448084015
:103D4000009020000921FDF713FC0804F02109036D
:103D5000014000980143396039681E4808400090CE
:103D600020000921FDF704FC0005F02109040140B1
:103D7000009801433960184C18488642206805D3E2
:103D80008021090601432160154803E040004008F6
:103D9000206014480599FDF7FFFB0A21484321687C
:103DA000114A0A400104114B0B4013432360216860
:103DB000490B4903C004C00C0843206007B0F0BDA4
:103DC00008050049C44C04100024F400FFFFFF7FE5
:103DD000FFFFF0FFFFFF0FFF2C040049811A0600D0
:103DE000000060EA00003075FFFF00E00000FF1FE8
:103DF00070B51D4C21681D4A10601D4B1D680822BE
:103E0000E0262E400CD0202E12D0402E1AD0602E4C
:103E10001AD0802E1AD0A02E1AD0C02E1AD01DE093
:103E200019680A4019D10321FDF7B6FB810015E09E
:103E300019680A4001D0410810E00321FDF7ACFBEE
:103E400041000BE0032106E0062104E00C2102E022
:103E5000182100E03021FDF79FFB0100216070BDBB
:103E60000248006870470000183200201C32002011
:103E70000800404810B504000800110002002000AE
:103E8000FFF784FA200010BDFEB504000D0028687D
:103E9000FFF7A6FAFFF7AEFA514B0EE09968014022
:103EA0009960D9680840D86005E0D9680840D860B2
:103EB000986806439E600198401C0190286801990B
:103EC0000200CA4000D17EE001268E400640F2D0BA
:103ED0003000FFF785FAFFF78DFA070068680228BF
:103EE00024D16869082F0DD20090206AB9000F22F2
:103EF0008A409043009A94460A00614691400143EB
:103F0000216213E00290606A0090300AFFF768FABD
:103F1000FFF770FA810000980F228A409043029ABE
:103F200094460A00614691400143616269682068D5
:103F30007A006F463A7003276A4612789740FA4330
:103F400010406F463F78B9400143216068680128FE
:103F500001D0022807D1A868A1680A4069460978FB
:103F600088401043A0602969F0439022D205944212
:103F70001AD1002911D0022901D007D39BE7196873
:103F800008401860586806435E6094E75968084026
:103F90005860186806431E608DE719680140196073
:103FA00059680840586086E7002900D176E7022961
:103FB00002D000D279E77EE7996808409860D86817
:103FC0000643DE6077E76968012901D0022905D13F
:103FD00061688143EA685043084360600020FEBD89
:103FE000200050480200012013685B062ED41068A0
:103FF000194B0340086818434B680343C8681843CB
:104000000B690343486918438B690343C869184324
:104010000B6A034313605068104B034088681843D1
:104020004B691B0C03435360886880231B01984233
:1040300003D250685B0003435360086A80239B01EE
:10404000984202D1486A80B210610020D169044BC5
:104050000B40D361704700004000FFFFFBF0FFFF03
:10406000FFF7FFFFF8B584B000F0A0F900F049F8C1
:1040700000F06AF8E1204002009000256846858142
:104080000195856069460020FFF768F884490020A3
:10409000FFF704F9002000F09BF9824C8020C0005B
:1040A0002018009080A7814E0AE00021FEF736FA22
:1040B000002805D03078002802D03800FEF7CCFE6A
:1040C00030780028F1D0009A8021C9002000FEF746
:1040D000F6FE0028F4D0002188B220180278491C8E
:1040E0000A2A03D00D2A01D0002AF5D10D22027030
:1040F0000A208AB2A054009A1580491CC9B2200037
:10410000D4E700B587B0142102A8FFF73DF968464F
:104110000021002206C00120029000040390032128
:1041200002911020049002A800F084F9002800D029
:10413000FEE7009001901021684600F077FA002811
:1041400000D0FEE707B000BDE0B5684600210022C0
:1041500000230EC002200090C0020290684600F0CA
:10416000DDFA002800D0FEE707BD70B50025040089
:104170000E0003E0205CFFF7BDF86D1CA8B2B04252
:10418000F8D370BD10B5494C0020FEF793FB2070AA
:10419000237800BF69A200BF50A100BF60A0FEF756
:1041A000F7FD10BD38B5424C66A505E0E368A2688E
:1041B0002800FEF751FE103421680029F6D131BDE8
:1041C00080B500BF6FA300BF6CA200BF67A100BF96
:1041D00060A0FEF7DDFD01BD3EA100BF5DA0FEF7C2
:1041E000D7FDBFF34F8F334833490860BFF34F8F7C
:1041F00000BFFDE710B50020FEF75CFBC4B2230052
:104200004EA22EA146A0FEF7C3FD002C07D0022C23
:1042100004D12B4801682B4A0A40026030BF10BD10
:1042200080B500BF3AA100BF58A0FEF7B1FD2448F9
:104230000168244A0A40026001BD00007CB50020EC
:10424000FEF738FB86B20120FEF734FB00241E4D3A
:104250002B6899191D4AAA18914201D30124002301
:10426000019400BF4FA0009044A200BF22A11848B3
:10427000FEF78EFD002C02D128688019286073BDDE
:1042800080B50020FEF716FB1EA105E080B50E48A4
:10429000011D016014A100BF3CA0FEF779FD01BD26
:1042A0006B4104100C3700203E000000E932002072
:1042B000500000200400FA050CED00E0776669006C
:1042C00058004048FFFBFFFFE001002004300000E1
:1042D0002C5504107265626F6F740000696E74650E
:1042E00072616374697665004D656D416C6C6F63D6
:1042F000496E6974000000004D656D416C6C6F6320
:10430000000000004D656D4465616C6C6F630000DA
:1043100064697361626C65557361727400000000BA
:104320007B264E207574696C6974792063616C6CAE
:104330002E2E2E20267432787D0D0A006D6F646556
:104340000000000025732025732025730D0A0D0A37
:10435000000000007B264E204150492063616C6CB8
:104360002E2E2E2674737D0D0A000000667756658A
:104370007273696F6E416374696F6E0076616C75FC
:1043800065000000302E322E300000007B264E20CB
:104390007574696C6974792063616C6C2E2E2E7D46
:1043A0000D0A00006572726F7200000010B50024E3
:1043B000032000F0CFF9002801D0012401E000F033
:1043C000EFF9200010BD0148406870470C32002012
:1043D00080B50020FEF792FE0120FEF78FFE02203E
:1043E000FEF78CFE00F0F4F900F00AFA03A102488F
:1043F000FEF732FD002002BD8C540410302E322E08
:104400003000000081B0874801688903FCD58168CD
:1044100002220A438260002102E000BF0099491C89
:10442000009100990629F8DB816804220A43826022
:1044300001B07047F8B5040001D10120F2BD794DFB
:104440002078C00741D5A9480168A94A0A408021BF
:10445000890111430160016880220A4302600168FA
:10446000A44A0A4002600168A34A0A400260016847
:104470007F22914328220A4302606068802149021A
:104480008842286801D1014301E067490140296061
:10449000606800280CD000F0CBF906002868800383
:1044A00013D400F0C5F9801B6528F7D30320F2BDB3
:1044B00000F0BEF9060028688103C90F05D000F09E
:1044C000B7F9801B6528F6D3F0E70427FF430420E3
:1044D0002168014032D0E16800291FD029683940A5
:1044E000296029680A07D20FFBD12968102291435D
:1044F0002960A968834A0A4081031143A960296899
:104500000843286000F094F906002868000715D4D5
:1045100000F08EF9801B0228F7D9C7E728683840D9
:10452000286000F085F9060028680107C90F05D04A
:1045300000F07EF9801B0228F6D9B7E720788007C3
:1045400046D5286807402F601020C04329680140E5
:10455000296029688A06D20FFBD16B496B4A136820
:104560000B401360536819405160A968654A0A40BE
:10457000802109021143A9602027E9686022914344
:104580003943E960A168102903D1286801432960F3
:1045900002E0296808402860A06800280BD000F0DD
:1045A00047F906002868384012D100F041F9801B15
:1045B0006528F7D37AE700F03BF906002868810602
:1045C000C90F05D000F034F9801B6528F6D36DE7DC
:1045D0002078000724D5402620694028286801D18A
:1045E000304300E0B0432860206900280BD000F081
:1045F0001FF904002868304012D100F019F9001B9F
:104600006528F7D352E700F013F904002868410643
:10461000C90F05D000F00CF9001B6528F6D345E75B
:104620000020F2BD00004048FFFFFEFFF2B506008B
:1046300035D03024E443364800682040102101433F
:1046400033480160334D306800281DD1286840058B
:1046500025D52868800322D5286880218901014357
:10466000296000F0E5F807002868400406D400F04F
:10467000DFF8C01B0328F7D30320F2BDA868E021B0
:10468000884371680143A960306801280FD1FFF7A2
:10469000B9FE2868400502D42868800301D40120AF
:1046A000F2BDA868E021884371680143A960009EBB
:1046B0003027174D28683840864210D028680440BB
:1046C00034432C6000F0B4F8040028683840B0424D
:1046D00005D000F0ADF8001B0328F6D3CCE700F0BE
:1046E00037F9FFF770FE00F035F8F2BD980040484A
:1046F000FFC0FFFFFF3FFFFFFFFFF8FF0648006816
:1047000070470000FF7FFEFFFFCFFFFF28005048EB
:104710000410004000004048183200200A49027886
:10472000920705D50A68094B134082681A430A604C
:104730000278120705D50A68054B134040681843F4
:10474000086000207047000008004048FFEFFFFFAE
:10475000FFFF3FFFF8B506000024104DA8680028B1
:1047600018D0FFF7CBFF0700FA208000A968FCF7FC
:1047700013FF01003800FCF70FFF00F051F900288B
:1047800008D1042E06D231000020C04300F043F9C6
:104790006E6000E001242000F2BD00BF0C3200205A
:1047A00080B50849002000F055F90749002000F0C5
:1047B00071F90649012000F06DF93021012000F067
:1047C00049F901BD1FC80000E0370000CFFF00001D
:1047D00081B00A490A6A012002400CD10A680243EA
:1047E0000A600A6882430A600A6A02430A62096A26
:1047F000084000900098002001B0704740004048F9
:1048000081B00A490A6A082002400CD10A680243B2
:104810000A600A6882430A600A6A02430A62096AF5
:10482000084000900098002001B0704740004048C8
:1048300001480068704700BF0C32002038B552486C
:10484000524C534A0121534B1B68002B13D1C368B0
:10485000002B05D1436B002B02D1436C002B0AD0F7
:10486000916000F039F9BFF34F8F4B486060BFF3A0
:104870004F8F00BFFDE7494B23602368136120225F
:104880000368134303600368454C1C4004600369DC
:104890005B07FCD583693024A34313438361836999
:1048A000404C1C40846183690C021C438461C0201D
:1048B0003D4B1B683D4CA34228D03D4B1C683D4DF1
:1048C00025408424A4052C431C601C68CD05254389
:1048D0001D601C681E25AC43102525431D601C6807
:1048E0002143196034490B68344C1C4004430C606C
:1048F0000B681A430A600A68314B134042011A439D
:104900000A600A688023DB0013430B6000235CB25B
:10491000E10018250D40FF22AA40D143C022AA4041
:10492000250004D4274CAD08AD00641906E0264DDF
:104930002407240F083CA408A4002C19256829404A
:104940000A4322605B1CD9B22029E0DB62B631BD8C
:1049500000B51E48026800684005410F90070ED55B
:104960001B4800290DD0012901D1400809E001228E
:10497000FE318A4051008918FCF70EFE01E015480F
:10498000C8401549086000BD0400504808ED00E02B
:1049900004000020940040480400FA0500000410C0
:1049A000FFFEFFFFFFFBFFFFF81E0010CCECBCFC7E
:1049B0000C004048FFFFFFC0940050483FFCFFFF41
:1049C000FFC7FFFF00E400E01CED00E008004048E6
:1049D000006CDC020090D0031832002010B5C20039
:1049E00018231340FF249C40E2438907090E994095
:1049F000030004D414489B089B00C01806E0134B26
:104A00000007000F083880088000181803681A4053
:104A10001143016010BD80B5FFF7E0FF01BD00004C
:104A200010B5401E80214904884201D3012010BDE9
:104A3000074C606003210020C043FFF7CFFF002038
:104A4000A0600721216010BD00E400E01CED00E043
:104A500010E000E010B502000020CC431D4B002AFE
:104A600002D0012A0AD013E05A6822405A605A68DC
:104A700014405C601A681143196010BDDA68224066
:104A8000DA60DA681440DC609A681143996010BDFE
:104A9000012010BD10B502000020CC430D4B002AB0
:104AA00002D0012A0AD013E01A6822401A601A685C
:104AB00014401C605A681143596010BD9A68224026
:104AC0009A609A6814409C60DA681143D96010BDFE
:104AD000012010BD200050487047FEE7456E746508
:104AE00072696E672062696E6172792073616D70A0
:104AF0006C696E67206D6F64652E20496E20746846
:104B00006973206D6F64652C207468652053544D63
:104B10003332574C3320636F6D6D756E696361740A
:104B2000657320776974680D0A0000006120686F62
:104B3000737420646576696365207573696E672098
:104B400061202A62696E6172792A2070726F746FB7
:104B5000636F6C206F76657220554152542E20543D
:104B6000686973206D6F646520697320757365646F
:104B70002062790D0A00000067722D53544D3332C4
:104B8000574C332C207468652053544D3332574CA6
:104B90003320474E55526164696F20626C6F636BBE
:104BA0002E0D0A0053747265616D2077696C6C205C
:104BB0006F6E6C79207374617274206166746572B3
:104BC0002066697273742062696E61727920636F06
:104BD0006E66696775726174696F6E206D65737357
:104BE0006167652069732072656365697665642E07
:104BF0000D0A00005573652065736361706520734D
:104C0000657175656E6365207E2E7E2E20746F2023
:104C1000657869742120537769746368696E6720C9
:104C2000746F207265717565737465642062617557
:104C300064726174653A2025640D0A00535049205E
:104C40006D6F646520686173206265656E206163C5
:104C5000746976617465642E2055415254207769D9
:104C60006C6C206F6E6C79206265207573656420B2
:104C7000666F7220636F6E66696775726174696FC3
:104C80006E20646174612E0D0A0000005761726E1F
:104C9000696E673A2042696E617279495153616D5C
:104CA000706C696E67206F6E2D6465766963652030
:104CB000627566666572206F766572666C6F772EB8
:104CC0000D0A0000006A1800700A1700B0B2150043
:104CD0002053140060FB1200D09B11001044100000
:104CE00080E40E00C08C0D0000350C0038850B00F0
:104CF00058D90A0090290A00B07D0900E8CD0800C3
:104D0000082208004072070060C60600801A0600EC
:104D1000A8C00500B86A0500C8140500D8BE040084
:104D200000650400100F040020B903003063030085
:104D3000400D030060DE020050B7020070880200E0
:104D4000785D0200803202008807020090DC0100DA
:104D500098B10100A0860100C0700100445B010011
:104D600064450100E82F0100081A01008C040100CD
:104D7000ACEE000030D9000050C3000060B8000065
:104D800070AD000080A20000F4970000048D0000C8
:104D90001482000024770000986C0000A8610000D5
:104DA000305C0000B856000040510000C84B0000C5
:104DB000B4460000D8400000C43B00004C36000060
:104DC000D4300000182E00005C2B0000A02800004A
:104DD000E4250000282300006C200000B01D000026
:104DE000F41A0000ED17000016170000AE150000C1
:104DF000501400000613000094110000041000007D
:104E0000D80E0000AC0D0000350C00007C0B00003B
:104E1000DC0A0000280A0000600900009808000071
:104E2000340800006C070000A40600000000000029
:104E30000000000000000000000000000000000072
:104E40000000000000000000000000000000000062
:104E50000001010201020203010202030203030432
:104E60000102020302030304020303040304040512
:104E70000102020302030304020303040304040502
:104E800002030304030404050304040504050506E2
:104E900001020203020303040203030403040405E2
:104EA00002030304030404050304040504050506C2
:104EB00002030304030404050304040504050506B2
:104EC0000304040504050506040505060506060792
:104ED00001020203020303040203030403040405A2
:104EE0000203030403040405030404050405050682
:104EF0000203030403040405030404050405050672
:104F00000304040504050506040505060506060751
:104F10000203030403040405030404050405050651
:104F20000304040504050506040505060506060731
:104F30000304040504050506040505060506060721
:104F40000405050605060607050606070607070801
:104F5000640070007E008D009E00B200C800E0007A
:104F6000FB001A013C0163018E01BF01F501320211
:104F70007702C4021A037B03686A6C747A4C0000DF
:104F80007072696E74665F733A20256E206469736F
:104F9000616C6C6F776564007072696E74663A203C
:104FA00062616420256E20617267756D656E7400A4
:104FB0007072696E74665F733A2062616420257353
:104FC00020617267756D656E74000000000000005E
:104FD0007072696E74665F733A2062616420256C3A
:104FE0007320617267756D656E74000000000000CB
:104FF0006E616E004E414E00696E6600494E46007D
:105000003000FEE753746172742062696E617279D8
:105010002064756D70206F6620492F512073616D7B
:10502000706C65732074616B656E206174207468A8
:1050300065206F7574707574206F662074686520C4
:105040006368616E6E656C2066696C7465722C2095
:10505000706172616D65746572206973207768652F
:105060007468657220746F207573652053504920F1
:105070006D6F646520616E64206261756472617435
:1050800065000000F1B401684118436858080A1827
:1050900000988068DB0701D54B46C01891422DD09F
:1050A0000D78491C032403262E4002D10E78F61CED
:1050B000491C2B090F2B07D10B780F33491C03E038
:1050C0000F78491C0770401C761EF9D1002BE5D0E3
:1050D0000E78491CAD082C40032C01D10C78491CDA
:1050E00024023419654244190025AE1E9E42D5D0D3
:1050F0002678641C0670401C6D1CF6E700980C3086
:10510000F2BC704744756D70206F6620746865202E
:1051100052617720492F512073616D706C696E6701
:105120002074616B656E20617420746865206F75F2
:1051300074707574206F6620746865204368616EB2
:105140006E656C2066696C74657220696E73696443
:1051500065207468652064656D6F64756C61746F3B
:105160007200000044756D70206F662074686520C1
:1051700052617720646174612074616B656E206197
:105180007420746865206F7574707574206F662064
:10519000746865206672657175656E6379206465F3
:1051A000746563746F7220696E73696465207468D6
:1051B000652064656D6F64756C61746F72000000CA
:1051C00044756D70206F6620746865205261772089
:1051D000646174612074616B656E20617420746811
:1051E00065206F7574707574206F66207468652013
:1051F000706F73742D66696C74657220696E736963
:105200006465207468652064656D6F64756C617495
:105210006F7200006F6B0000237B264E20267420E7
:1052200026742026747D0D0A0000000073746174DA
:1052300075730000237B264E2026742026742026BA
:10524000742026742026742026747D0D0A00000028
:10525000676F6F640000000071695F696E666F00C0
:1052600064756D6D790000005365742057464920C0
:105270006D6F64653A203020657869742066726FBE
:105280006D207766692C2031207766692C20322CBE
:10529000207766692077697468207573617274205D
:1052A00064697361626C6564000000005265636547
:1052B0007074696F6E2073756D6D61727920696E9F
:1052C000207061636B6574206D6F646520666F721A
:1052D00020646566696E656420616D6F756E74200B
:1052E0006F662074696D650070B40123002413E0BB
:1052F0000168001D194202D04D466918491E0C6014
:10530000091D121F042AFAD20D00960701D50C8040
:10531000AD1C1A4000D02C700268001D002AE7D195
:1053200070BC70475472616E736D697373696F6E90
:1053300020696E207061636B6574206D6F646520F9
:10534000666F7220646566696E656420616D6F7555
:105350006E74206F662074696D650000526561642B
:1053600020616E64207072696E7420525353495FDD
:105370004C4556454C5F52554E206669656C64201D
:10538000657665727920696E74657276616C206DE0
:105390007300000044756D70207468652046756C5C
:1053A0006C206269742073747265616D2073746F10
:1053B00072656420696E746F207468652052414D77
:1053C0002062756666657273000000005265636551
:1053D0007074696F6E20696E207061636B657420F4
:1053E0006D6F646520666F7220646566696E6564C2
:1053F00020616D6F756E74206F662074696D650035
:1054000041637469766174652077616B657570209E
:10541000726164696F20616E642064756D707320C1
:105420007265636569766564207061636B6574732A
:1054300000000000526563656976652064617461EF
:1054400020756E74696C20616C6D6F737420667565
:105450006C6C2069732072616973656400000000E0
:105460005472616E736D697373696F6E20737461CA
:10547000727465642C207479706520276527207408
:105480006F2061626F72742E0D0A000053544D3309
:1054900032574C3320434C49204170706C69636132
:1054A00074696F6E2076657273696F6E2025732E36
:1054B0000A0D0000526563657074696F6E20737425
:1054C00061727465642C20747970652027652720CB
:1054D000746F2061626F72740D0A00005253534959
:1054E000204C69766520737461727465642C207435
:1054F0007970652027652720746F2061626F727450
:105500000D0A000010B5074979441831064C7C4457
:10551000163404E0081D0A68891888470100A14272
:10552000F8D110BD500000006C0000007B264E201A
:105530007574696C6974792063616C6C2E2E2E20F1
:105540002674347820267434787D0D0A000000001B
:1055500044756D7020737461727465642C20747965
:1055600070652027652720746F2061626F72740D4B
:105570000A00000075FDFFFFE40E0000F03200207D
:105580000000000001FBFFFF900300004604000044
:1055900030000020696E74656765722061726775FE
:1055A0006D656E74206F7574206F662072616E6712
:1055B0006500000000F00DF8002801D0FFF7A2FF01
:1055C00000BF00BF002000BF00BFFEF74BFD00F092
:1055D00002F80120704780B500F002F801BDFEE737
:1055E00007463846FCF762F9FBE7FEE777726F6E15
:1055F00067206E756D626572206F662061726775D7
:105600006D656E7473000000496E6974696C616C3D
:10561000697A652064796E616D6963206D656D6F6F
:10562000727900000548014603B4684680F3098892
:1056300000BF00BF00BF00BFFFF7BCFFA5EDF5FE38
:10564000FF2902D90020C043704701700120704734
:105650000078401E8041C043C00F7047617267757B
:105660006D656E742073796E746178206572726FE7
:1056700072000000696E76616C6964206172677502
:105680006D656E7420747970650000005365742038
:10569000696E746572616374697665206D6F6465A7
:1056A00000000000526561642063757272656E745B
:1056B0002074696D657220287573290038B505005E
:1056C0000C002000FDF76AFEA04200D00025280053
:1056D00032BDFEE773657269616C20706F72742071
:1056E0006572726F720000004465616C6C6F63617B
:1056F0007465206D656D6F727900000042696E619E
:105700007279495153616D706C696E6700000000D9
:1057100044697265637442756666657244756D703E
:10572000000000007278206572726F7220667261EC
:105730006D696E67000000007047FEE770477047B4
:1057400080B50020FDF7C3FD01BDFEE76E6F20733D
:1057500075636820636F6D6D616E64007374726948
:105760006E6720746F6F206C6F6E67004C69737486
:1057700020636F6D6D616E64730000005265626F2F
:105780006F74206465766963650000004765742066
:1057900066772076657273696F6E0000526561648A
:1057A0005265676973746572000000005265616438
:1057B00020726567697374657200000057726974BE
:1057C0006552656769737465720000005772697489
:1057D000652072656769737465720000436C695275
:1057E0006573657454696D6572000000416C6C6F7F
:1057F00063617465206D656D6F72790052785061D8
:10580000636B65747353756D0000000046726571BB
:1058100044657465637444756D7000004469736118
:10582000626C652055534152540000007278206527
:1058300072726F722073796E630000007278206557
:1058400072726F722063726300000000014880472B
:10585000014800473D480410255604106E6F20652E
:1058600072726F7200000000667756657273696F1E
:105870006E000000436C6947657454696D65720081
:1058800052657365742074696D6572005278506159
:10589000636B65747300000054785061636B6574CA
:1058A00073000000527373694C6976650000000054
:1058B000536F667453796D44756D700057616B65F5
:1058C000757052780000000068656C700000000080
:1058D0005278446174610000495144756D70000054
:1058E00077770000777500007777620075770000A2
:1058F000776669006F760000FEE7FEE7FEE7FEE7E9
:10590000FEE7FEE7FEE7FEE7FEE7FEE7FEE7FEE76F
:10591000FEE7FEE7FEE70000100F5C580410D456C7
:1059200004104C570410EC5504109404125C10122F
:105930005C1012740812C8201007A54104101659F3
:1059400004106C145003D4420410D910127C1012AD
:10595000DC101285101003E21004108C3012683035
:1059600052C120128C20129C041007D918041082F6
:10597000110410AC0C12BC04100329190410E02807
:1059800022CC6411084371193012A44012DC145265
:10599000B51012801C12E860438D421012082012CC
:1059A000F80C123D0412E41C12EC2C4004044304D5
:1059B0001081426012E820228CB0521D6010025308
:1059C0000410FC2412911012E8102003AC520410B1
:1059D0009870421E1012242022D0B0421D60133451
:1059E0005484111043B91F50125C2012D81043ADDB
:1059F0002350130451501164138D347C2110100274
:105A0000500410B00852F92012C020120C08432D87
:105A1000241012641012108043512460129450120A
:105A2000BC184399201012007012F01056F5401265
:105A300068A01210D05221F0121C1CD20001F003F9
:105A4000FFE40100200001F1FF01F1FF01F1FF017E
:105A5000F1FF01F1FF01F1FF01F1FF01F1FF01F1A0
:105A6000FF01F1FF01F1FF01F1FF01F1FF01F1FF82
:105A700001F1FF01F1FF01F1FF01F1FF01F1FF0170
:105A8000F1FF01F1FF01F1FF01F1FF01F1FF01F170
:105A9000FF01F1FF01F1FF01F1FF01F1FF01F1FF52
:105AA00001F1FF01F1FF01F1FF01F1FF01F1FF0140
:105AB000F1FF01F1FF01F1FF01F1FF01F1FF01F140
:105AC000FF01F1FF01F1FF01F1FF01F127016C047A
:105AD0004000410040101130300248000010041E08
