:020000041004E6
:100000000080002025B804108D5904108F59041069
:1000100000000000000000000000000000000000E0
:1000200000000000000000000000000091590410D2
:1000300000000000000000009359041095590410BE
:1000400071B8041071B8041071B8041071B80410BC
:1000500071B8041071B804100000000071B80410E9
:100060009D59041071B8041071B80410BD860410B5
:1000700071B8041071B804100000000071B80410C9
:1000800071B8041071B8041071B8041071B804107C
:1000900071B80410B176041071B8041071B804106E
:1000A00071B8041071B8041071B8041071B804105C
:1000B00071B8041071B804100000000000000000C6
:1000C000EFF31482EFF30981154880F31488BFF32E
:1000D0006F8FF0B543464C4655465E466746F8B4CA
:1000E000104CEFF30883636006B4BFF34F8F30BF4B
:1000F000C046C0460B4C646884F3088882B003BCD9
:10010000F8BC9846A146AA46B346BC46F0BC04BC1F
:1001100080F3098881F31488BFF36F8F1047C046BE
:100120000000000004000020FEB59D4C217800294D
:1001300001D01120FEBD060001D11320FEBD01AD8E
:100140003B20E87101A807F02BFB01000DD1E879F5
:100150003B2801D01220FEBD211D742007F0C8FAF3
:100160006268002A01D0010001D01021A8E011002E
:10017000583110006C3001F02FFA0700606805D18B
:10018000563001F03AFA0700606803D007F0BBFA76
:100190003800FEBD5821415C012905D15621415C42
:1001A000062901D01720FEBD697809022A7811437B
:1001B00081845621405C00F0CFFA61685431EA78BE
:1001C0001202AB781A4310400880A8790872022006
:1001D000717B02291FD1626803219160BA4BD36001
:1001E0000023136133699362337E3027D3556268ED
:1001F00013002C33009373699D4FBB4206D1FA2341
:100200005B00009F3B603123D15404E00021009B40
:1002100019603123D0540121727B012A0DD162680B
:10022000AA4B93600023D36013613227D1556A79BA
:1002300012022B791A4363689A86626833681360E6
:100240007368536013005A33757B5D71B56815662A
:1002500000251D805723D55462686432337B012BFF
:1002600001D1642303E0022B02D196239B0013806B
:10027000337B1373B3683C25A24FBB420ED155802C
:10028000A14B9380727B042A00D12070707B0128DF
:1002900001D0022800D121700020FEBD9B4FBB423F
:1002A00004D108235380FA23DB00EAE7984FBB42CE
:1002B00002D15580844BE4E7606807F024FA1421EA
:1002C00000F047FAFEBD70B500250024344E3078AA
:1002D000002801D1212070BD706807F014FA0100D8
:1002E00000D020243570210000F033FA70BD3CB5F9
:1002F00083B0089C2500012C00D00025002801D1E6
:10030000332013E00D2901DB30200FE0002A03D158
:10031000012C01D1312009E00295019300920B00DC
:10032000020001211E48406800F054FA05B030BDBB
:100330001FB502240443012B06D101206B461C7318
:10034000002904D134200CE000206B461C7302907D
:1003500001920091002303AA00211148406800F097
:1003600039FA04B010BD1FB505210023022801DBB6
:10037000352013E0040002D10321072303E0012804
:1003800001D10421052300200290022001900020C9
:10039000009000220248406800F01CFA04B010BD32
:1003A0003400002080B5002A06D0012A0CD0022A91
:1003B00012D0052A13D015E00CA20260002901D04A
:1003C00010200870002002BD07F044FA0100F9D0A7
:1003D0005C2100F0BEF902BD07F03CFFF6E702F039
:1003E0009BFCF3E75D210020F3E7000056322E313D
:1003F000302E305F46444C5F4D4F4E0038B50C00F8
:10040000AC4D2978012930D1696802688A60426858
:10041000CA6080680861C00509D5086E3C4A9042F0
:1004200005D108006030374A0260374A02815F20F8
:10043000085C01280AD1080000F051F96968C886F3
:10044000002801D1412032BD32200C5468685F2160
:10045000415C022907D18168002902D0C0680628C2
:1004600001D2402032BD02202870002032BD0000A1
:10047000E093040070B505000C008E4E3078002823
:1004800001D0582070BD07F04DFC010001D057216C
:1004900012E0280007F006FE050004D007F080FDFA
:1004A0005721280008E0200007F0C4FD040006D012
:1004B00007F076FD5721200000F04BF970BD0320B6
:1004C0003070002070BD000088130000FF010000A4
:1004D00038B5784C2078032801D05A2032BD07F077
:1004E000CFFD0025010001D0257004E007F058FD84
:1004F0000100257003D0592100F02BF932BD0020F6
:1005000032BD000000EE020008520000D4300000AE
:10051000A08C0000F8B584B0050003A868A4266884
:100520000660002901D1532041E0684602720D2A7D
:1005300001DB52203BE05F4C2078022801D05120A3
:1005400035E00320207000226668B0186C27C05D7B
:1005500003AFBF5CB8420FD1521C042AF5DB0193F4
:10056000002000906846037A0A000121300000F064
:1005700013FA010002D01AE0502018E0606800F081
:1005800008F9010003D0542100F0E3F80FE028003F
:1005900003D10021606800F0B1FF02000021606813
:1005A00000F046FD010002D102202070002005B0BD
:1005B000F0BD0000FEB50F0015001E00694600BF2B
:1005C00040A213680B603B4C2178022901D05620D1
:1005D000FEBD0421217000226168019189186C23FD
:1005E000C95C6B469B5C994218D1521C042AF3DB10
:1005F000002802D1019800F0EDFF31000200380020
:1006000000F0B4FE010014D12A003900606800F047
:10061000CEFE02219B2803D12170FEBD5520FEBDD8
:10062000020006D1089862686A23D25A02802170BB
:100630000020FEBD20490278002A0CD0022A08D0F2
:1006400005D3032A09D10978017000207047497841
:10065000FAE78978F8E7C978F6E75F20704780B550
:1006600000216A461170694600F0B6FF02BD80B5F0
:1006700007F005F9010003D05B2100F06AF802BD24
:10068000002002BD0B490A78022A01D05E20704783
:1006900049685722885400207047084A904201DB7D
:1006A000B1207047401C034949685A2288520020F3
:1006B00070470000340000203C000020FF0F0000C5
:1006C00098BADCFE98BADCFE0100C878020288788D
:1006D000024348780002097808435040704730B51B
:1006E00001000020002300249D004D19AD68E54065
:1006F000ED0700D5401C641CE5B2202DF4DB5B1C2B
:10070000032BF0DB0621484380B230BDF0B50C006E
:1007100005006035AE88006E310003F00BF907006C
:100720002889310003F090F9381AE9886143401AAA
:1007300080B2F0BD30B502000C0015006435A88809
:100740006421515A03F080F969884C43001980B242
:1007500030BD0002084370470121401E8140C8019E
:10076000401E80B27047026849004118098B64231B
:10077000C35A59435118036E5B08C91A914201D3F9
:10078000012101E00021C943826AC06A4143501837
:100790007047E0B56946828C0A70828C120A4A70F2
:1007A00002005432D37A012B04D1838E0B71838ED5
:1007B0001B0A4B715423C35A8B705423C05A000A2E
:1007C000C870107A8871684606F0F3FF010000D106
:1007D00000200EBDF6B585B00025002700260EA925
:1007E0000978012904D10126664A1570664A1570F8
:1007F00066490978022901D06020C1E00D99039073
:100800000320624A107003985D3004900570022442
:10081000002902D169460D7201E068460472069A09
:100820006846017D0196007A0090039800F0B4F8C4
:100830000100E2D10398FFF7ACFF002802D00102CB
:1008400061208AE004988078022803D10398C76861
:100850004F490D70BBB26846027A0EA80178039822
:1008600000F049FC010001D07E2828E0002E5CD079
:100870000420464908700EA80078012807D106F028
:10088000BDFF010003D001029820084314E0039843
:10089000426904988078022801D1222100E01921C0
:1008A000012000F063FD010006D10C9A012103989C
:1008B00000F07DFD010006D0010004D09B285FD12F
:1008C00032490C705CE00EA8007801282DD12F4E23
:1008D00003203070022006F021FF002802D0010220
:1008E00064203AE00190009008230022022103983E
:1008F00000F052F8010043D10398FFF74AFF0028A7
:1009000002D00102622028E004988078022800D1F9
:10091000204FBBB200220021039800F0ECFB010045
:1009200003D07E282CD134702AE003985D21405CEE
:10093000012822D104980570019500950523002215
:100940000421039800F028F8010019D10398FFF75B
:1009500020FF002803D001026320084310E0049820
:100960008078022801D10398C768BBB20222002117
:10097000039800F0C0FB010002D10448047000207D
:1009800007B0F0BD3D0000203E00002034000020F4
:100990003F000020280A0000F6B595B005001C00B5
:1009A00002270C97002069460874202200210DA818
:1009B0000AF08DFF1322002107A80AF088FF00200B
:1009C0006946486148825420285A401C5421685284
:1009D00001265621695C491E01228A40D101491E27
:1009E0000140542029525820285C01282AD1562041
:1009F000285C401E01228240D001401E89B2014283
:100A000004D15C20285C401C5C21685415A8007847
:100A1000042817D05420285A5621695C491E012207
:100A20008A40D101491E084209D05A21695A002939
:100A300008D003F0EFF8481E8041C00F03E069467C
:100A40000E7602E0002069460876684644741698DF
:100A5000002C05D1002807D001780E4037430FE065
:100A6000012C01D100210CE0621E0421091B53104E
:100A70009B0F9A18921092008F18B91CC9B20C9152
:100A8000B9012A003E3215AB1B78002B00D18FE054
:100A9000022B2ED000D28FE0042B01D05BD395E047
:100AA000117004AA921C05A905A8801C06F030FE4E
:100AB000010002D001029520F2E00A2644216E5482
:100AC0006846C08AC82102F0BFFF452168546846C5
:100AD000808AC82102F0B8FF4621685404980014A7
:100AE0000A2102F0B1FF472168545C20285C4821AC
:100AF0005CE0117004AA921C05A905A8801C06F0F0
:100B000007FE010002D001029320C9E00920442120
:100B100068546846C08A452168546846C08A000AFD
:100B2000462168546846808A472168546846808A0E
:100B3000000A482168540498001449216854049814
:100B400000140004000E4A21685428005E30808999
:100B500064304B212AE0117004AA921C05A905A853
:100B6000801C06F0D5FD010002D00102922097E022
:100B70000820442168546846C08A45216854684664
:100B8000C08A000A462168546846808A4721685412
:100B90006846808A000A4821685404980014492154
:100BA0006854049800140004000E4A2168540DE0B3
:100BB00000788001107009E0002304E0C65C9F1DEE
:100BC000FFB2D6555B1CA342F8DB11703E20295CB6
:100BD0001DA80078400120221040084329003E3122
:100BE00008705422AA5A1205120F02430A705420A8
:100BF000285A3F2168540020402329186C22895C20
:100C00002A18D154401C0428F7DB2F003E37582007
:100C1000285C012837D115A80078042833D068460D
:100C2000407C002815D00120039007A802902800DE
:100C30006C3001905C20285C009054202B5A684650
:100C4000427C290044312800443000F049F9010079
:100C500024D107A85C21695C017000217A5C4318EB
:100C60005A70491CA21D9142F8DB04AB6846427CD5
:100C7000D21DD2B207A90DA801F03AF801001CD08C
:100C8000010296200CE004AB6846427C921DD2B271
:100C900039000DA801F02CF801000ED001029120BE
:100CA000084300D018E115A80078012837DD8B48EB
:100CB000E88362302884D6485DE000206946497C9C
:100CC0000C9A0DE02B003E330E18B61DF6B20DAC9B
:100CD0006F463F7C3F18E419103C24789C55401C1B
:100CE0009042EFDB8C18A71D5E202F542E003E365D
:100CF000F9B2300000F0D8FE010AFFB2F155E41D50
:100D0000E4B230555E20285C801D5E2168545D2071
:100D1000285C6946097E01435D202954C3E75E20B3
:100D2000295CBC48102912DA490041181C3909888D
:100D3000E9835E21695C49004118103909882984DA
:100D40005E21695C49004018001F008813E00A39E1
:100D500089104900415AE9835E21695C0A3989108A
:100D6000490041188989298418305E21695C0A3953
:100D700089104900405A68841C9829005E314978DE
:100D8000401C0090A44F042901D0022946D1A88C10
:100D9000002802D0791C884205DB28006C30FFF760
:100DA00093FC3840A8841DA8007801281DD101219A
:100DB0002800FFF7ABFC040001212800FFF7BAFC74
:100DC000012322000100A88C00F0F8FCA8842883ED
:100DD000A88C29005E31098940186883A88C2900F5
:100DE0005E310989401AA88318E0002400212800F8
:100DF000FFF78CFC060000212800FFF79BFC012375
:100E000032000100A88C00F0D9FCA8842900183118
:100E100062008852641C00988442E7DB28005E3040
:100E20004078012857D1A88E002802D0791C88422A
:100E300005DB28006C30FFF747FC0740AF86A88C25
:100E4000002801D0802806DB28006C30FFF73CFC2E
:100E50004006400EA8841DA8007801281ED1012359
:100E6000EA8E521D92B20821A88E00F0A7FCA88637
:100E7000002326220421A88C00F0A0FCA884A88EC0
:100E80002887A88E401C6887A88E401EA887A88C3B
:100E90002883A88C6883A88CA8831CE000240123E5
:100EA000EA8E921D92B20721A88E00F087FCA886D8
:100EB000002326220421A88C00F080FCA884600076
:100EC000A98E2A181187A98C2A0018321152641C85
:100ED00000988442E3DB002017B0F0BD67AF00004C
:100EE000FFB58DB01022002109A80AF0F0FC1022F5
:100EF000002105A80AF0EBFC1022002101A80AF04D
:100F0000E6FC464800685721405C012801D10126D3
:100F100000E00026189D179C0B21681D0AF0A9FC13
:100F2000E078C0012871A078C001E1784908014348
:100F3000E9706078C001A17849080143A970207860
:100F4000C001617849080143697020784008802118
:100F500001432970009600BF31A31022290009A87F
:100F600006F014FC010050D1199A169809A90B7BC0
:100F7000FE271F400F7303094B73002A02D1102272
:100F80001A434A7310AA1288000113051B0F03436A
:100F90008B73CA73E078C0012871A078C001E17832
:100FA00049080143E9706078C001A178490801430C
:100FB000A9702078C00161784908014369702078E0
:100FC00040082870009600BF15A31022290005A82C
:100FD00006F0DCFB010018D10120009005AB1022C7
:100FE00009A901A806F0D2FB01000ED100220D983C
:100FF0000E990FAB1B7805E001ACA45C8D5C6540DD
:101000008554521C9A42F7DB002011B0F0BD00005D
:10101000BEB10000F8CB0410FF070000380000202C
:1010200000112233445566778899AABBCCDDEEFFC8
:10103000F0B587B004000D001600002006F072FE27
:10104000972700282ED1300007F02CF8060003D097
:1010500006F0A6FF300226E02B00AA2168460170A8
:10106000417059006118CA8B120A8270C98BC17015
:101070005E21615C0A1FD2B2011D20003E3000F0EB
:10108000CBFB5E20225C7020215C684606F090FF5E
:10109000040003D006F084FF200204E006F080FF85
:1010A000002802D000020743380007B0F0BD70B539
:1010B0000400080015001E0006F034FE010019D1DE
:1010C000280006F0EFFF050003D006F069FF2800B6
:1010D00070BD320030202156052007F02DF80400A5
:1010E00003D006F05DFF200070BD06F059FF01003F
:1010F00000D1002070BDF3B585B01C0000266B4602
:101100009E801E70049602966946097E012900D1D0
:1011100002910500684682705F20285C012811D189
:1011200069464E703220285C01286CD1002A6AD0B2
:101130000298002867D00A2006F04CFB010034D04A
:10114000702105E10298012141406846417020006C
:1011500050D05F20285C02284CD127006846848844
:10116000380006F02FFB01001DD100212800FFF7F9
:10117000FAFA6B4602003120295C2800FFF797FF3E
:10118000010018D168460078002816D1A968491EC8
:10119000A0B289B2884218D2032006F0BFFA01003B
:1011A00013D07921D4E07721D2E006F027FB0100AB
:1011B000CDD07121CCE07621CAE0684600780128C4
:1011C00003D106F019FB010048D1641CA968A0B244
:1011D00089B2884203D2684600780128C0D16248AB
:1011E00000784107490FC008A4B20019C0000818D0
:1011F0005D4908705F20285C022804D168460078A9
:10120000012800D0A7E0694689780191491C039123
:101210002C00049E69464F780025E9B2200000F0BA
:101220006DF90200E9B22000FFF702FF010000D0D3
:1012300098E05F20205C022804D14B480078401CD5
:1012400049490870002D28D15F20205C6946097E3D
:1012500001290CD1022803D1132002E0782177E084
:10126000142006F0B7FA010017D0752170E00128AC
:1012700013D13220205C01281ED1E08E039902F0A8
:10128000E3FB0100142002F055FB86B2002E13D0C0
:10129000300006F09FFA01004BD15F20205C02284D
:1012A0000AD10198854207DA002D05D1FA204001C4
:1012B00006F088FA01003ED1380006F02FFA01004E
:1012C0003BD15F20205C02281CD10198854219DAAD
:1012D000691CC9B22000FFF746FA6B4602003120B4
:1012E000215C2000FFF7E3FE010028D1684600786A
:1012F000002826D00198401E854203D106F07CFAD2
:10130000010024D16D1C0398854286DB5F20205CA0
:10131000012826D13220205C012822D1360420D099
:10132000029800281DD106F069FA010019D0732136
:101330000EE072210CE07B210AE0742108E07A21A2
:1013400006E006F059FA0100E0D07C2100E07D21A2
:10135000FFF7FFF906E068460078002801D17E20FB
:1013600000E0002007B0F0BD3F00002070B50C0089
:101370001500012006F0D6FCE026002801D000026E
:1013800010E0280006F08EFE050003D006F008FEEF
:10139000280207E0200006F01DFA040005D006F040
:1013A000FFFD20020643300070BD002070BDF7B580
:1013B00090B00024002669468C7400250C70102221
:1013C000002107A80AF083FA69460C821022002146
:1013D0000BA80AF07CFA10985430069004AA1099D1
:1013E0006A3107A806F064FE05906846007C012873
:1013F0004CD107A911A80078012830D104AB5B1C9F
:1014000010985421425A01466C3107A800F086FB1F
:1014100006003BD16846407C012834D107A80699D4
:101420000979012913D103940BA9029110996C3108
:1014300001910699097A0091109954228B5A082239
:10144000011D1298FFF74CFD694608701EE01299C5
:10145000021D125D0A55641C082C17DAF8E70122F8
:1014600000231298C55CCF5CBD4200D000225B1CFB
:101470000F2BF7DB129006981621415E100006F044
:10148000DFF9050002D105980028A7D006F088FDF5
:1014900004006846007C002803D006F0A7F96946DE
:1014A00088749A20002E01D0310212E0059900299B
:1014B00001D009020DE0002C01D0210213E06946A1
:1014C000897C002902D06946897C0BE0002D03D07D
:1014D0002902084380B20FE069460978002904D048
:1014E000694609780902084306E06846007C00283E
:1014F00001D19B2000E0002013B0F0BDFCB504003A
:101500000F00002000217A00A21800925F22A25C46
:10151000042A01D0022A0AD10098018B20006030F1
:101520008088414320684018236E5B08C01A012A56
:1015300040D1002601960098008F801F80B2401E87
:10154000062102F081FA401CC0B2002501998142B7
:1015500015D00021019BAE00A619B668CE40F60753
:1015600003D55B1CDBB298422DD0491C202901DA3F
:101570008342F0D1002601936D1C032DE6DB200091
:10158000603005890098008F401E062102F058FA4D
:101590000E48414368180099098B962292004A43ED
:1015A000811820684018F6B2094A56438019226E05
:1015B0005208801A002F05D162685118226E520815
:1015C000891A6161F6BD68014618D8E7A861000074
:1015D000E09304004069704710B50C0006F042F932
:1015E000002803D001029920084310BD207801286B
:1015F00001D000202070002010BD10B5040006F0BE
:101600003AF9002803D00102E120084310BD2078F8
:10161000002801D0072801DB162010BD002010BDD6
:1016200000210022D300C318196019715971521C8E
:10163000042AF7DD7047F7B582B00400594D2878C9
:10164000002801D0B2207EE01E0001D1B4207AE053
:101650005549342001F038FA5449896B00295DD08E
:1016600002005BD12000514C0E6306222A7000223A
:101670004F4B1A700870A06B001DFFF7D1FFA06BD5
:1016800000212C22815401786A461170061D002029
:101690000021002201236D462D78D5401D402CD01D
:1016A00000253400414ED700F61901960E000AD1EC
:1016B000019E3668EF00E759BE4200D101216D1C42
:1016C000EDB2A842EEDA2600384C231DD700DF1910
:1016D0000B0009D0E9007118091F3B780D789D4275
:1016E00000D04B70002108E0C300019D2D68F5502B
:1016F0003D78371DFD54401CC0B2521C072AC9DB7F
:101700000500042006F00EFB010007D16846017CAD
:101710008089284A01F0E8F9010001D0B3210EE0E8
:10172000254B0022E9B2A06B001D01F007FA04006E
:1017300008D006F035FC01F0FBF9B3212000FFF7DB
:1017400008F800E0002005B0F0BD38B5154C207851
:10175000062803D0072801D0B52032BD01F0D2FA07
:10176000050004D006F01CFC01F0E2F905E001F0F0
:10177000DFF9050004D006F013FCB62128000AE0CA
:1017800006F00EFC010005D10848806B01F0A7F9B6
:10179000010003D0B621FEF7DCFF32BD002020702F
:1017A00032BD000034000020E0180020A8180020FE
:1017B0003C00002095180410FF180410F8B5040030
:1017C000012B03D10820134B0A2502E005207F23BB
:1017D000062501260F0011006A465780002C00D113
:1017E0001C002700EF4001223A406F463A70270064
:1017F000074101223A4064006F463F787A4000D0AA
:1018000034431C40A142E9DB6A4652889442E5DB3E
:101810002000F2BDFF070000F7B506000C001F0016
:101820000025002A03D0114620000AF022F80022E9
:1018300015A0B9004018009031001EE0A65C1F0002
:1018400047433743A75400BF0EA0455D12E08023F5
:101850000098405D8F5C1F42F0D0002801D1180035
:1018600000E00020A65C3043A05400BF05A0455D09
:10187000AD1CEDB25B08EBD1521C6846007A824287
:10188000E5DBF7BD000001010000000000010100E0
:101890000001000138B57E4C2078062803D00728C7
:1018A00001D0B72032BD7B480178491C017001F09E
:1018B00029FA050004D006F073FB01F039F905E0C0
:1018C00001F036F9050004D006F06AFBB8212800C3
:1018D0000FE006F065FB01000AD16F4D00210020EA
:1018E0002A68126B9047286801F0F9F8010003D0CC
:1018F000B821FEF72EFF32BD0020207032BDF4B5B6
:1019000084B000240027624A1278062A03D0072AEE
:1019100001D0B920BAE000235F4A1268DD00161D2D
:101920007659864208D05B1C042BF7DD06F038FBA5
:1019300001F0FEF8BC20A9E00600684601705019CD
:10194000017A6A46127891420CD152480178491CBA
:10195000017001F0D7F905000DD101F0E9F805009B
:101960000ED01EE0407A9042EFD006F019FB01F055
:10197000DFF8BB208AE006F013FB01F0D9F812E093
:101980004348007801210291062843D107204049AD
:101990000870424A0021C820400001F0A5F8050067
:1019A00004D006F0FDFABA21280069E03A4D286813
:1019B000001DFFF735FE286839496A461278E300B2
:1019C0000093CB58B34211D10B1D009D5B5D934238
:1019D0000CD10378E340029D1D4007D046604B1DAB
:1019E000009D5B5DFDB245192B727F1C641C072CAA
:1019F000E5DB2C2142542B4B01220121001D01F07B
:101A00009DF8040041D006F0CBFA01F091F8BA211C
:101A1000200035E0072838D106F0C2FA01002ED1A7
:101A20001D48006801902C21415C00200022039693
:101A3000D3001B4DED58039EB5420CD1184D2E1D01
:101A4000F65C8E4207D16D1DEB5C6D462D78AB4286
:101A500001D102989040521C072A01DA0306E7D010
:101A6000049909B2019B2C255C55C0B2019A126BF6
:101A700090470948006801F032F8010003D0BA210C
:101A8000FEF767FE02E002480470002005B0F0BDDA
:101A9000340000203C000020E018002095180410BD
:101AA000A8180020FF18041030B5020000230024FD
:101AB0000EE0030009E0105C0002584083B20825E4
:101AC00058001B04F5D5064B43406D1EF8D1641C2D
:101AD000E0B28842EFD30348584080B230BD0000E6
:101AE00021100000FFFF000030B502000B000020B5
:101AF00000240DE0080008E0515C41400800082582
:101B000041000006F6D52F2048406D1EF8D1641C18
:101B1000E1B29942F0D3C0B230BD0000FFB589B048
:101B200005002022002101A809F0D1FE00200C9917
:101B300008705A490A9802784078000210436A46B1
:101B4000928D5043084000D108000026012400F087
:101B5000AFF8711CAA5D0300CB405340AB556A1C23
:101B6000935D01228A40521E02400721891B8A4050
:101B70005A40691C8A55761C082EE8DB2F00002588
:101B800000F096F8691C7A19527A0300CB40534052
:101B90007A195372937A01228A40521E0240072119
:101BA000491B8A405A4079198A726D1C042DE7DD61
:101BB00000F07EF8B97B6D1CE8404840B873002601
:101BC0000020F8730021002241A39B5CBD5CC5404E
:101BD00025406B434B401900521C0E2AF4DD00BF18
:101BE0003FA2C9B2515C79180A780123834053405F
:101BF0000B70401C0828E5DB0A21381DFFF774FF35
:101C0000B97B814243D101AD0A98007828700A98C7
:101C1000407868700A988078A8700A98C078E87050
:101C20006846808D28716846808D000A68710020A2
:101C3000391D095C2A189171401C0828F8DB0A98A4
:101C40000078A8730A984078E8731548006857210F
:101C5000405C012800D000200090124B102201A906
:101C600001A805F093FD010016D1387B2978884240
:101C700006D1787B6978884202D10C9804700AE01A
:101C800009480178491C01700C98067003E0074868
:101C90000178491C017000200DB0F0BDFF0100006B
:101CA00038000020201004103E0000203D000020DD
:101CB0000821212202404008202A01D0012A03D114
:101CC0000200802040001043491EF2D170470000FE
:101CD0000102040803060C0B050A070E0F0D09008C
:101CE0000F0001040208050A030E0907060D0B0C7C
:101CF000F1B582B000240026112A01DB202000E08B
:101D0000102018700025080019006B461A700DE0AD
:101D1000761CF6B209E0825D0F4BEFB2DA556A46E7
:101D20001278521E9642F3D100266D1C0A78EBB24F
:101D30009342F0D3094800685721405C012800D144
:101D4000012402980094064B034905F01FFD010091
:101D500000D10020FEBD00BF400000203800002060
:101D60002010041000210022D300C318196019713B
:101D70005971521C042AF7DD7047000003A202606B
:101D8000002901D0072008700020704756302E38F7
:101D90002E300000F0B500220A614A610A76964AA8
:101DA0000223964C0125042608284CD801A73F5C45
:101DB000BF4400BF0A122A3E1A546E768200904831
:101DC0000860904834E090480860904802E08E48EF
:101DD00008608F4848608C600B734D73F0BD8D4870
:101DE00008608D4848608D4888600D734B73894842
:101DF00006E088480860884E4E608C600D734B7317
:101E000008614A614F2009E0A8480860804E4E6092
:101E10008C600D734B7308614A614020C0430876A3
:101E2000F0BDA3480860B14802E0B1480860B1487D
:101E300048608C6005E0B0480860B0484860100910
:101E400088600D734E73F0BD30B501000020002492
:101E50000022A5004D59D540ED0707D4521C202A79
:101E6000F7DB641C032CF3DBC0B230BD60018018CB
:101E7000FAE780B505F0AEFC010004D105F0BEFC28
:101E8000010000D1002002BDF8B584B0002500217A
:101E900001AB0A004032CCB21A55491CCAB20C2A16
:101EA000F7DB070015E00102C22058E00102C32061
:101EB00055E005F09BFC200054E00102C4204EE0F8
:101EC00005F09CFC002848D1641CE0B20C2832DDEF
:101ED0006D1CE8B2B84244D2122005F07BFC002809
:101EE000E1D1002302220021FEF722FA0400E0D112
:101EF00005F084FC0028D6D1122005F06BFC0028E8
:101F0000D4D10023022200210120FEF711FA04009F
:101F1000CFD105F073FC0028C8D1122005F05AFC7F
:101F20000028CAD1FEF71FFA0400C2D105F066FCF2
:101F30000028C2D10124122005F04CFC00280CD14D
:101F4000009002230022E1B201A8FEF7D0F90600BA
:101F5000B6D005F04BFC300004E00102C620084377
:101F600000E0002005B0F0BDF8B504000F0000202F
:101F700038602000FEF7D8F806002DD1914D607B27
:101F8000022808D1002128001830FEF737FA060091
:101F9000280018303860607B012816D160681B4922
:101FA000884206D100212800FEF728FA06003D608D
:101FB0000BE01749884208D1002128000C30FEF7B9
:101FC0001DFA060028000C303860300003D0FEF700
:101FD0007AF93000F2BD0020F2BD01207A49087084
:101FE0000020704710B5784B02241C70597098611E
:101FF0009A80002010BD0000400D030000EE02009A
:10200000D09CBE3308E6D333C07AC6358041F43560
:10201000602EF93600EA0637C0A7F736A08C00001C
:10202000F1B582B00F0014001D00042005F07AFE07
:10203000CE26002836D108992800644A00F054FDC5
:1020400069464F700C700A9F00285F4C2AD100250A
:1020500025705F4B684602784178029800F06EFD6B
:1020600000281FD120780028FCD000F04BFE00286B
:1020700018D1207802280ED100206178B94204D10D
:10208000A169099A914200D101200421615E05F005
:10209000D7FB002806D120780128D8D105F080FF91
:1020A000002802D0000206433000FEBDA0700837B1
:1020B00080E7913330B5444A032313700023002492
:1020C000050009D00500E540ED0703D4641C072C8A
:1020D00001DAF7E7631C1C002006C00D1018038905
:1020E0005B1C038191809470002030BD60B0A233EE
:1020F00000D6C833E069CD3324C21A04748E580464
:10210000FFB585B0002008602F4F3800083000214F
:102110000022002300241EC001A80EC06846808B48
:10212000401E009001AD00E0641C6846808B844234
:1021300044DA00203870B978297049007918098983
:102140000A0A6A70A9700421795E0A04120EEA7004
:10215000297100998C4201D1252002E0002C00D188
:102160002420687106990598FFF7FEFE060023D12A
:1021700000230C2201A90020FEF7CCF9060019D19A
:10218000FEF7A1F8060017D100988442CCDA114B73
:102190000122042108A80078FFF74DFA38780028BA
:1021A000FCD00620FFF765FE0028BDD00102CE203E
:1021B000084304E0FEF787F8300000E0002009B093
:1021C000F0BD00001C19002060000020DB1F04107F
:1021D000E51F0410B5200410F8B596B005000C00FA
:1021E000002769460F8000268F800722002108A85B
:1021F00009F06DFB2800092801DBCA208EE10EA939
:10220000FFF7C8FD02A90EA8FFF7AEFE0100F5D149
:102210002000C34C0EAD0D2800D97AE101A1400089
:10222000095A8F441A00F4004401A201C801800237
:102230009200EC02EC02EC02EC0270009A00C40086
:10224000AA220C2103A809F01DFB0E9E687B012821
:1022500004D10298FFF7F8FD6043361803243500D7
:1022600000230C2203A92800FEF754F9010000D036
:1022700043E10120FFF7FDFD060007D1641EEFD109
:10228000FEF721F8010000D147E147E1FEF71BF816
:102290003102C7203BE10023022200210020FEF78B
:1022A00047F8040055D10023022200210120FEF747
:1022B0003FF804004DD1E3E70720FFF7E5FDF8E71D
:1022C0000120FEF7DFF9040043D1AB206946087313
:1022D000009602230022012103A8FEF708F804005B
:1022E00037D10020FEF7CEF9E3E708A805F058FA49
:1022F000040004D0FDF7E7FF2102D02007E108A881
:1023000003A902780A7040784870009602230022E0
:10231000022103A8FDF7EBFFCBE769460E7015A875
:1023200005F0A0FA040004D0FDF7CDFF2002CB2475
:1023300016E068460078012815D1122005F04AFA07
:1023400000280BD10120FEF70EF8040002D005F0A2
:102350004DFAD3E005F052FA002804D00002CD2453
:10236000044300D0CCE00120A7E7002003A902002D
:1023700040320A54401C0C28F9DB01200090022353
:1023800006AA0C2103A8FDF7B2FF0400E1D1012148
:10239000012003AB1970002106AC645C0D003035E0
:1023A000AC4203D1491C0729F6DD01E000201E7074
:1023B000002105F045FA04005DD10023012203A9A4
:1023C0000020FEF7A7F874E70F2200BF55A10AA866
:1023D00009F054FA01A800901E230AAA00210F98C0
:1023E000FEF7E8F8040000D14AE79B2862E703A85B
:1023F0000021002200230EC04DE02004000EB0702A
:10240000F470019800B2643030712804000E7071CD
:10241000B5710620FFF72DFD0090002830D17F1CFC
:10242000B8B2FF212E31884200DB29E7491E8842DD
:102430002ED12320F07101230C2203A90020FEF7E6
:1024400069F8010059D101A8009004230AAA0121CA
:102450000020FEF7AFF89B2802D16D1C002003E09E
:1024600001004AD1641C0120019909B205F0E8F984
:102470000028C2D00400FDF726FF2102C12046E05B
:10248000FDF721FF00980102C820084380B245E013
:10249000684605802600002003A9C87168460588A3
:1024A000340003AEC7E70E99687B012805D10D0003
:1024B0000298FFF7C9FC60432918092503AE0C00F8
:1024C000092005F087F900281CD164343470200AF3
:1024D0007070200CB070200EF0700023042203A94D
:1024E0002000FEF717F8010007D105F087F9002852
:1024F00008D16D1E00D1C3E6E2E70400FDF7E3FE5C
:1025000020000BE00400FDF7DEFE2102C920084395
:1025100004E0FDF7D8FECC2000E0002017B0F0BDAD
:10252000E09304001F2041843268C5BA53AE79E7B6
:10253000F6DD9B00F0B597B006000C0015000828EA
:1025400000DC01D1CA207DE010A9FFF723FC072E93
:1025500014D801A0805D8744060A12120E161A1EB6
:1025600000260CE008260AE0182608E0102606E0FF
:10257000202604E0282602E0302600E0382620004D
:10258000072801DACF205DE0484C69460D7006D07F
:1025900004D3092876D057D30A287AD083E0201DA7
:1025A000805D0873A059059006A8FFF7DBFB0021AA
:1025B0000022002501206B461B78EB4003402FD002
:1025C0000023EE00A619029616000CD1029E376871
:1025D000BC4606AFDE00BE59B44500D101225B1CEB
:1025E000DBB29942EDDA201DEE0080190190100057
:1025F0000BD00198007806AADB00D218121F1378BE
:10260000834200D0507000220AE0C800029B1B6881
:1026100006AE3350019B1B78361D3354491CC9B29A
:102620006D1C072DC6DB6846007B02900598019063
:10263000012000901E23002206A8FFF7F1FC0100F4
:1026400000D1002017B0F0BDA01940790873A5593A
:1026500006A8FFF787FBA059069006A8A11949799B
:102660000171002141716846007B029001950120B3
:1026700000901E230122012106A8FFF7D1FC0100D2
:10268000E0D1DEE72B460B2204A910A8FFF738FDA6
:10269000F5E72B46FF222E3204A910A8FFF730FDE4
:1026A0000100CED0CEE7CC20CCE70000E41800201B
:1026B0004F488178012908D011490278D2008A5800
:1026C0004078C0000858824201D0012070470020A5
:1026D000704741100B4A0A40801A0B490A00024019
:1026E0008010014050180111411808480840010AA3
:1026F00040180100001408188006800E7047000082
:102700001403002055555555333333330F0F0F0F36
:10271000F0B5A9B0012004F0B3FFC24841784D1EC6
:1027200033480090BF480478002C0CD10098007BFF
:10273000A84208DA00980078009A5070401C01F016
:1027400069FA00980170FFF7B3FF002808D0002C49
:1027500006D10098007BA84202DA002005F082FD35
:10276000CD480168CC05E40DAE490978002901D1B6
:102770004B2100E0782107910069C10F01204840FA
:1027800004F05AFD079A01000BA809F077F8FFF74B
:102790008FFF002814D0A3480078002810D100989B
:1027A000007BA0494978491E884209DABB48009954
:1027B0000978C900405808F0B5F9022005F052FD2B
:1027C000B74AC0218902012004F04EFF00988078AA
:1027D000012804D10098007B401C00990873002157
:1027E000B04A90480078002811D1AF48435C0CE013
:1027F000F8020020D420484310185D00401900253D
:1028000048268553882685535B1C202BF2D3491C10
:102810000329E6DB002105910126C7E0401E09904F
:10282000684600790399401A694688712F00C837B5
:102830000A98002806D078688979491E01228A40C2
:1028400002437A600120694609798840401EB749F1
:10285000A2008958039B0A00DA406B469B79994095
:1028600011430140029102994A006B461B795B1E9D
:10287000D940114308400490B86880002958029A52
:10288000049810434840FFF724FF03994900691852
:10289000039103994822895A081A03998852396882
:1028A000029A049810434840FFF713FF0399482207
:1028B000895A081803998852B868800029580298E4
:1028C0000840FFF706FF0399883104910988081A28
:1028D00004990880396802980840FFF7FAFE0499C5
:1028E0000988081804990880002100BF6FA0A20081
:1028F0008058039A4823D25A904228D36EA0A2004F
:102900008058049A1288824206D2099A5200AA1864
:102910008823D25A82421AD300988078022800D1A4
:1029200082E0002C00D07FE0009A967000988160D1
:1029300000980422805E001D089A904206DA104634
:10294000009A908000984078009A90710696286CC2
:10295000401C28646A461279521E82420FDA386897
:10296000BA689200A85078683860686CB86079607E
:102970002964686C401C6864102800DB6964684640
:10298000C479032C02DA0698002826D0089C069900
:1029900068464079401C6A4650716846407908286C
:1029A00001DA00290BD00598401C05900598079A7C
:1029B000904249DA002947D100206A4650710BA89D
:1029C000059A805C07226B465B79D21AD040C20719
:1029D000D20F0894002406910A9230480099497851
:1029E000C9004018611C6A46D17100BF35A1027947
:1029F000895C00BF33A24079105C0843E04030405E
:102A0000BDD02848D42161434518286C039000BFED
:102A1000C9A0005D694608710398002801D1684685
:102A20000079FBE610030020029102A9342004F093
:102A30004BFF08F0C5F90299421812B26846C179F5
:102A40001648009B5B7816E00098007B401CA74965
:102A50004978884215D100988078012811D1022048
:102A60000099887000980421425E8168491CC9B2AF
:102A70000A48009B9B79DB00C058009B1B69984764
:102A800007E0042005F00EFE002802D000984069FF
:102A9000804729B0F0BD00000C0600491403002057
:102AA000112704107C000020382D0410A000000025
:102AB000760000006900000015000000150000000D
:102AC000150000000001020410B50C0008F0E2FE41
:102AD000010001D1802000E00020216010BD80B500
:102AE00008F0E2FE002002BD80B5814B1A600A00AA
:102AF00006D100220100042005F09AFD002002BD4D
:102B0000012905D100220100042005F0A0FDF5E710
:102B1000022903D100223C214843F4E7032903D1D1
:102B20000022E1210901F7E7822002BD2C2D0410CB
:102B300080B5012004F0A4FD002002BDFEB586B0E2
:102B4000072901DB8420CFE0684A51700024694FD7
:102B50000190684601700EE0E600BD1908212800CA
:102B600008F087FE019880190168296001792971B0
:102B700040796871641C684600788442ECDB0899EF
:102B80006846007F5C4C2161584D2870C720C043C7
:102B9000A0800020A0712073A0602080385807F02A
:102BA000C1FF2878002802D1A0704B2002E002204B
:102BB000A070782004F016FB04F02CFB002001909C
:102BC0004E4F0198D4225043381802905AA0019ACF
:102BD000805C401E029A10640F20029A506400220A
:102BE000019800BF54A3D42444433C199500012606
:102BF0001B5C9E40761E6651521C102AF1DB00249D
:102C00004DA1095C6A461170012112789140491E5C
:102C1000039100BF45A18200895805916946097852
:102C2000049101902CE00599E14005986A461278DC
:102C3000121B90400843039D05400198D42148434E
:102C400038180290029861004618016868006A46C8
:102C500013785B1E2A00DA40024303981040284391
:102C60004840FFF736FD0001482170520298006885
:102C700005402800FFF72DFD000188217052641CDB
:102C800004988442CFD30198049BD42141437C18FB
:102C90000022482605E0590061188A5388254A53C6
:102CA0005B1C202BF7D3D421414379180A00C8328A
:102CB0004B6C9B00CB5853604B6C9B00CB181B1F7D
:102CC0001B681360496C491E9160401C01900328E9
:102CD00000DA76E7022005F0C5FA094AC021890228
:102CE000012004F0C1FC002009B0F0BD1003002059
:102CF0000C03002014030020F80200207C000020B8
:102D00001127041080B5012004F0BAFC002005F062
:102D1000A9FA002002BD000007220A7001A101608B
:102D20000020704776312E322E3000000080008067
:102D30000010000200042000201A1600F8B59F4879
:102D400041699F480A7802704A7842708A78827096
:102D5000CA78C2700B7903714A7942718A7982719B
:102D6000CA79C2710A7A02724A7A42728A7A827285
:102D7000CA7AC2720B7B03734A7B42738A7B82736B
:102D8000C97BC1730426070010378E4C6D460422A0
:102D9000391F684608F072FDB00717D12A786878A5
:102DA0002870A8786870E978A970EA702A78A25C1F
:102DB0002A70205C6870605CA870E878205CE8701D
:102DC00028788149B208895C414029703800103860
:102DD000007829784140397038000F3800786978D8
:102DE0004140797038000E380078A9784140B970B8
:102DF00038000D380078E9784140F970761C3F1DA5
:102E00002C2EC4D3F1BD10B46C4909696C4A000181
:102E1000101804220B7804785C400C704B784478CE
:102E20005C404C708B7884785C408C70CB78C47834
:102E30005C40CC70001D091D521EEBD110BC7047C8
:102E400010B45E48016904225E4826E05B480069D0
:102E5000417842794270427A4271427B42724173B8
:102E60008178827A827081728179827B82718173AA
:102E7000C178C27BC270C27AC273C279C272C17198
:102E800070474100C0091B2250434840C0B2704700
:102E900010B44A48016904224C480B78C35C0B709B
:102EA0000C79035D0B710B7AC35C0B720C7B035DB9
:102EB0000B73491C521EF0D110BC70473F4800698B
:102EC000417B427A42734279427242784271417048
:102ED0008178827A827081728179827B827181733A
:102EE000C178C279C270C27AC271C27BC272C17328
:102EF0007047F8B50020FFF786FF0120694648704B
:102F0000FFF79EFFFFF7A2FF2C48016904220F780C
:102F100068468770CB7888786C4620704C782000A3
:102F200078406D462E7846401D00754026007E4054
:102F300070007840F6091B277E4346402800704009
:102F4000087068460678664070006040F4091B26E9
:102F500074434440280060404870684604785C40F0
:102F6000067860007040E4091B2674434440280042
:102F70006040887068468078584044005C40C009D2
:102F80001B23584360404540CD70091D521EBED1E1
:102F900068464078FFF737FF68464078401C69462E
:102FA0004870684640780A28AADBFFF749FFFFF718
:102FB0004DFF0A20FFF727FFF1BD00004019002058
:102FC000440300201CCC04101CCE04101CCD0410A3
:102FD000F0B589B00A20FFF716FF0920694648714D
:102FE000FFF76CFFFFF754FF68464079FFF70BFFD0
:102FF000004801E040190020006904210790089171
:103000000798047840786946087007988078487077
:103010000798C07888702000FFF733FF0500200074
:10302000FFF72FFFFFF72DFF68406946C8712000AA
:10303000FFF727FFFFF725FFFFF723FF694688719A
:103040002000FFF71EFFFFF71CFFFFF71AFFFFF737
:1030500018FF68460078FFF714FF69460871684654
:103060000078FFF70EFFFFF70CFF68460078FFF7C8
:1030700008FFFFF706FFFFF704FF6946C8706846C0
:103080000078FFF7FEFEFFF7FCFEFFF7FAFEFFF702
:10309000F8FE68464078FFF7F4FE68464078FFF790
:1030A000F0FEFFF7EEFE070068464078FFF7E9FE06
:1030B000FFF7E7FEFFF7E5FE050068464078FFF7FB
:1030C000E0FEFFF7DEFEFFF7DCFEFFF7DAFE684604
:1030D0008078FFF7D6FE68468078FFF7D2FEFFF7CC
:1030E000D0FE68468078FFF7CCFEFFF7CAFEFFF7F8
:1030F000C8FE060068468078FFF7C3FEFFF7C1FEF2
:10310000FFF7BFFEFFF7BDFE6846C07969468979C3
:103110004140684600784840694609794140684620
:10312000C07848406946497841404F407D406846F4
:10313000807868404640079806702000FFF7A1FE9F
:103140002000FFF79EFEFFF79CFE2000FFF799FE90
:10315000FFF797FEFFF795FE6946C8732000FFF75B
:1031600090FEFFF78EFEFFF78CFEFFF78AFE6846A3
:103170000078FFF786FE6946887368460078FFF797
:1031800080FEFFF77EFE050068460078FFF779FEB7
:10319000FFF777FEFFF775FE060068460078FFF739
:1031A00070FEFFF76EFEFFF76CFEFFF76AFE6846E3
:1031B0004078FFF766FE6946887168464078C00926
:1031C0001B21484369460876684640784000C87528
:1031D0006846C07D097E4140684601710079C10999
:1031E0001B2251436A46917540006946897D4140E2
:1031F00068464173407B69468978C9091B2251435F
:103200006A461173694689784900D1726946C97A5C
:10321000127B4A406946CA70C978CB091B277B4399
:103220006F46BB724A006B469B7A53406A465372A4
:10323000527AD3091B277B436F463B72C3091B2776
:103240007B436F46FB716B46DB7B6340BF7B5F401C
:103250007D406E406B465B7873406D46AD795D4056
:10326000400068406B46DB794340684680785840B0
:10327000490041406846807A4840510041406846D4
:10328000007A484007994870E0091B214843694685
:1032900048756000497D4140684681718079694682
:1032A000487668468079C1091B2251436A461175E8
:1032B00040006946097D41406846C174C07C69464A
:1032C00009784A0069460978C9091B2359435140C6
:1032D0000A06D20F5A436B469A744A009B7C5340AD
:1032E0006A465374527C6B461A746A4612795B7B49
:1032F0006D466D7A6E46367CF6091B277E436F4617
:10330000FE73C6091B277E436F46BE7346006846A0
:10331000407E400060403F7D474077406846807B6C
:1033200078406F463F7847406846007C40007840D0
:103330006F46FF7B47406846C07D78406F463F7EC2
:103340004740500078406A46927D424058005040C5
:103350006A46D27942406846807850406A46D27ABE
:1033600042406846007B50406A0042406846007A0E
:103370005040079A90706846407C6A46527B6B4684
:10338000DB786D466D7A670067406C46647D7C40F3
:1033900066406C46A47B74406E46367866404900B1
:1033A00071406C46A47C4C40400060406946C97B3B
:1033B0004140684640784840510041406846C079E5
:1033C00048406946C97A41406846007B48405900F8
:1033D00041406846807A4840690041406846007A2A
:1033E00048400799C8700798001D07900898401E2C
:1033F000089000D004E668464079401E694648714E
:1034000068464079002800D0EAE5FFF757FDFFF74E
:103410003FFD0020FFF7F7FC09B0F0BD10B4042217
:103420000B7803704C7844708B788370CC78C470C0
:10343000001D091D521EF3D110BC704710B4A249E3
:10344000896904220B780478634003704C784378D0
:103450005C4044708B78847863408370CC78C37808
:103460005C40C470091D001D521EEBD110BC70479A
:10347000F7B584B01C001007000F0190059904985F
:10348000FFF7CCFF904F049838610020FA7B1500BD
:103490008E4B69420F26F643B1420ED019000F3110
:1034A00003941026751B0295039D2E780E70401C08
:1034B0006D1C491E029EB042F7D17C61002A07D0E4
:1034C0001900201804780C70401C491C521EF9D1B8
:1034D00004251E001036D34802906C460422311F8A
:1034E000684608F0CBF9A80718D1227860782070D8
:1034F000A0786070E178A170E270D44A2378D25C41
:103500002270D24B185C6070585CA070E178585CF7
:10351000E0700298A908405C5040207030001038DC
:10352000007821784140317030000F3800786178A0
:103530004140717030000E380078A1784140B17080
:1035400030000D380078E1784140F1706D1C361D77
:103550002C2DC3D3787B002802D03800443000E003
:10356000F869B86100260698002814D0049D059CCF
:103570002000FFF763FF21002800FFF74FFF3D61A8
:10358000FFF7B7FCBD61103410351036069886423F
:10359000EED304950594019800280FD0059904985E
:1035A000FFF73CFF10200199411A0498019A8018F6
:1035B00008F05FF904983861FFF79BFC787B0128DD
:1035C00002D13800343003E0022803D1380024301F
:1035D000102101E0386AB97B7861F97307B0F0BD5A
:1035E000F1B586B00C0015002807000F04906E4658
:1035F0006846FFF713FFBF4F68463861FFF79EFB31
:10360000F869B861002D14D0059535000026210019
:103610002800FFF703FF3D61FFF7DAFC2800FFF702
:103620000DFFBC6110341035103605988642EED37C
:103630002E00049800280DD021003000FFF7EEFE88
:1036400010200499411A0498301808F012F93E61CC
:10365000FFF7BEFC0021F87B03005A426B46069C34
:1036600006E01D000F354E42AD5D6554491CC9B2E0
:103670000D00103D9542F4D1002807D061186A462C
:1036800013780B70521C491C401EF9D107B0F0BDD5
:1036900038B584B00D00974C21004431A1616061C0
:1036A000FFF74CFB10222900684608F0E7F8256177
:1036B000FFF78EFC2800FFF7C1FE10226946A069C3
:1036C00008F0DCF805B030BD4019002044030020AC
:1036D0000268406810180B68C0184A6880188B6828
:1036E000C018CA6880180B69C0184A6982188869AE
:1036F000C96910184118C8437047F8B594B007005D
:1037000000240025002604AA40217B4803F0D4FEB3
:1037100004AA0C211378EB1855785B1995785B197E
:10372000D5785D19121D491EF4D1002804D1002D51
:1037300002D01398854203D06E48846001266DE064
:103740006C4D04ACE079012841D16846A179017043
:103750006179C1732021615C41702221615C8170BB
:103760002421615CC1702621615C01712821615CAA
:1037700041712A21615C81712C21615CC1712D2113
:10378000615C01722121615C41722B21615C81725B
:103790002321615CC1722921615C01732521615C77
:1037A00041732721615C81732000203000210022B9
:1037B00000230EC00160210010316846FFF768FF4A
:1037C000280044300021002200230EC0016020792F
:1037D00038730498A860049838602000083006C840
:1037E00006C5083D20000830391D0CC80CC1282131
:1037F0002800543008F03DF82000103029006431D2
:103800009CC89CC128005430E8612800643068617D
:103810002800643028621020E873A873300015B0C7
:10382000F0BD00001CCE041010B5029C002C04D189
:10383000304B5B69002B02D003E0002B01D101204B
:1038400010BDFFF715FE002010BD00001CCC0410B9
:10385000010008D127498A7B0B6A264948734B61CE
:10386000CA7300207047022802D11022234BF4E7CC
:10387000012802D11022224BEFE7012070471D4999
:103880000873002070471B490A7B002A02D01D499B
:10389000016007E00A7A02704A7A42708A7A82707E
:1038A000C97AC1700020704712494A69002A01D1C3
:1038B000012070470A7802704A7842708A788270D4
:1038C000CA78C2700A7902714A7942718A79827122
:1038D000C979C17100207047411E8941C943C90F90
:1038E00009480170002070470749097801700020DD
:1038F000704700004019002000E007106419002004
:103900007419002098BADCFEF403002002780B78CA
:10391000002A03D0013001319A42F7D0D01A704703
:1039200003B47146490840004900095E49008E44CD
:1039300003BC7047002243088B4274D303098B42B7
:103940005FD3030A8B4244D3030B8B4228D3030C6F
:103950008B420DD3FF22090212BA030C8B4202D311
:103960001212090265D0030B8B4219D300E0090A39
:10397000C30B8B4201D3CB03C01A5241830B8B4242
:1039800001D38B03C01A5241430B8B4201D34B032B
:10399000C01A5241030B8B4201D30B03C01A524190
:1039A000C30A8B4201D3CB02C01A5241830A8B4215
:1039B00001D38B02C01A5241430A8B4201D34B02FE
:1039C000C01A5241030A8B4201D30B02C01A524162
:1039D000CDD2C3098B4201D3CB01C01A5241830916
:1039E0008B4201D38B01C01A524143098B4201D350
:1039F0004B01C01A524103098B4201D30B01C01A7B
:103A00005241C3088B4201D3CB00C01A52418308F4
:103A10008B4201D38B00C01A524143088B4201D321
:103A20004B00C01A5241411A00D201465241104681
:103A30007047FFE701B5002000F0F0F802BDC04676
:103A40000029F7D076E7704703460B437FD4002266
:103A500043088B4274D303098B425FD3030A8B4222
:103A600044D3030B8B4228D3030C8B420DD3FF228C
:103A7000090212BA030C8B4202D31212090265D05A
:103A8000030B8B4219D300E0090AC30B8B4201D30D
:103A9000CB03C01A5241830B8B4201D38B03C01A54
:103AA0005241430B8B4201D34B03C01A5241030BCB
:103AB0008B4201D30B03C01A5241C30A8B4201D37C
:103AC000CB02C01A5241830A8B4201D38B02C01A27
:103AD0005241430A8B4201D34B02C01A5241030A9E
:103AE0008B4201D30B02C01A5241CDD2C3098B4283
:103AF00001D3CB01C01A524183098B4201D38B0100
:103B0000C01A524143098B4201D34B01C01A5241A2
:103B100003098B4201D30B01C01A5241C3088B42E7
:103B200001D3CB00C01A524183088B4201D38B00D2
:103B3000C01A524143088B4201D34B00C01A524174
:103B4000411A00D201465241104670475DE0CA0F4B
:103B500000D04942031000D34042534000229C460B
:103B600003098B422DD3030A8B4212D3FC22890115
:103B700012BA030A8B420CD3890192118B4208D3EB
:103B8000890192118B4204D389013AD0921100E04D
:103B90008909C3098B4201D3CB01C01A5241830961
:103BA0008B4201D38B01C01A524143098B4201D38E
:103BB0004B01C01A524103098B4201D30B01C01AB9
:103BC0005241C3088B4201D3CB00C01A5241830833
:103BD0008B4201D38B00C01A5241D9D243088B4289
:103BE00001D34B00C01A5241411A00D2014663462C
:103BF00052415B10104601D34042002B00D5494290
:103C0000704763465B1000D3404201B5002000F0CE
:103C100005F802BD0029F8D016E770477047C04686
:103C20001C2101231B04984201D3000C10391B0AEC
:103C3000984201D3000A08391B09984201D30009B0
:103C4000043902A2105C40187047C0460403020207
:103C5000010101010000000000000000002B11D153
:103C6000002A0FD1002900D1002802D00021C94329
:103C7000081C07B4024802A14018029003BDC046C8
:103C80009DFFFFFF03B4684601B5029800F046F8B7
:103C9000019B9E4602B00CBC7047C046F0B51504AF
:103CA0002D0C0F0001002E00C64684460004140CA3
:103CB000000C090C46434D43604361434019340CEA
:103CC000241800B5A54203D9802040028046414413
:103CD000250C6D18614659437A4330044919240470
:103CE000000C2018891804BC9046F0BD9E2110B528
:103CF000C905041C01F06EFB002803D1201C00F054
:103D0000BBFB10BD9E21201CC90500F0EDF900F0A1
:103D1000B3FB80231B069C466044F2E7F0B5574690
:103D20004E464546DE46E0B504000D0092469946F3
:103D300083B08B4230D82DD04946504601F054FB19
:103D400029000600200001F04FFB331A9846203B63
:103D50009B4633D45A465346934042461F0053462F
:103D600093401E00AF423AD8AF4200D178E05B46A4
:103D7000A41BBD41002B00DA75E000220023009255
:103D8000019301235A4693400193012342469340F5
:103D9000009328E08242CFD90022002300920193B1
:103DA0000C9B002B01D01C605D600098019903B052
:103DB0003CBC90469946A246AB46F0BD4246202305
:103DC0009B1A5246DA40414613004A468A40170081
:103DD00042461F43534693401E00AF42C4D90022BF
:103DE0000023009201934346002BD9D0FB077208B1
:103DF0001A4346467B080EE0AB4201D1A2420CD8E2
:103E0000A41A9D41012024196D410021013E24186E
:103E10004D41002E06D0AB42EED9013E24196D4132
:103E2000002EF8D1009801995B4600196941002BDA
:103E300024DB2B005A464446D3402A00E2401C00B3
:103E40005B461500002B2ADB26009E40330026002F
:103E50004746BE403200801A9941009001919FE789
:103E6000A342BCD883E74246202300219B1A0022AC
:103E7000009101920122DA40019286E74246202316
:103E80009B1A2A0046469A402300F34044461343B7
:103E90002A00E2401C005B461500002BD4DA4246A3
:103EA0002F002023260097409B1ADE403B0033431F
:103EB000CDE7C046F8B557464E464546DE46440275
:103EC000E0B545000F1C640A2D0EC60F002D47D02B
:103ED000FF2D4DD0002380209A469B46E400C0046D
:103EE00004437F3D7802430A99467A00FB0F9846C7
:103EF000120E4B4644D0FF2A11D0D8008023DB0499
:103F00000343994600207F3AAD1847465346774011
:103F1000691C0F2B3FD8724A9B00D3589F46FF3530
:103F2000002B00D079E0524602231A439246022029
:103F3000EBE747464C4683465B46022B28D0032BD3
:103F400000D1C6E0012B4FD100200024C005FF079F
:103F5000204338433CBC90469946A246AB46F8BD48
:103F6000002C71D104239A46033B00259B46B9E7F8
:103F7000002C63D108239A46063BFF259B46B1E7F8
:103F8000002B50D1524601331A4392460120BCE720
:103F9000FF200024DAE74846260C2404220C0404FF
:103FA000240C4B4620001B0C504374435A435E4381
:103FB0001219030C9B189C4203D98022520294468A
:103FC000664400041A04000C12189401601E844117
:103FD0001B0C920E9B1914439B011C431B0172D5B1
:103FE0000120630804401C4308007F3000283CDDAA
:103FF000630704D00F232340042B00D00434230193
:1040000003D580310800374B1C40FE28C0DCA401DA
:10401000640AC0B29AE737008EE7524603231A4378
:104020009246032071E74846FFF7FAFD4A46431FD0
:104030009A402D1A91460020763D66E70C239A4659
:10404000093BFF259B464DE72000FFF7E9FD76255C
:10405000431F9C4000236D429A469B462D1A41E720
:1040600080240027FF20E40370E701231B1A1B2B89
:1040700000DD69E79E3120008C40D840631E9C41E2
:104080000443630704D00F232340042B00D00434DF
:1040900063011AD50120002458E78020C0030442A0
:1040A00009D04B46034206D14C46044364024746BE
:1040B000FF20640A4AE78020C003044364023700FB
:1040C000FF20640A42E729008EE7A4010020640A69
:1040D0003CE78020C00304436402FF20640A35E704
:1040E0001CCF0410FFFFFFF7F0B54646D6464F46FB
:1040F00043025B0ADA0094464A02C0B54400560AFD
:10410000051CB046240E4E0092091F002000924666
:10411000ED0F360EC90FFF2E00D17FE00122514076
:104120008D4251D0A21B9146002A00DC7EE0002E79
:1041300000D199E0FF2C00D18CE080235246DB04B3
:104140001A4392464A4601231B2A08DC5346202183
:10415000D340891A52468A40511E8A41134362460F
:10416000D31A5A0100D4F3E09B019E093000FFF7F7
:1041700057FD05388640844200DDF7E03200041B1D
:1041800020200134E240041BA64033005E1EB341F0
:10419000002413435A0704D00F221A40042A00D0E7
:1041A00004335A0100D4D6E0621CFE2C00D1DAE0C0
:1041B0009B015F0AD0B2C0053843ED0728431CBC01
:1041C00090469946A246F0BDA21B9146002A63DDA7
:1041D000002E00D199E0FF2C3CD080235246DB0416
:1041E0001A4392464A4601231B2A08DC53462021E3
:1041F000D340891A52468A40511E8A411343634470
:104200005A0100D4A4E00134FF2C00D1ABE001221C
:1042100097491A405B080B401343BBE7002A32D092
:104220008D4235D0FF2252429146A1444A46002A8F
:1042300051D0301B002C00D09CE06346002B00D1F5
:10424000DFE00138002800D1F7E0FF2E00D099E030
:104250000D004346002B00D185E08027FF031F435C
:104260007F02FF207F0AA6E75246002A74D001226F
:1042700052429046C1444A46002A00D1C8E0FF2C71
:1042800000D05FE7E6E701225140A94200D049E7AC
:10429000FF2252429146A1444A46002A43D0311B94
:1042A000002C00D18CE0FF2E00D192E080236246EA
:1042B000DB041A43944601231B2909DC20206346B2
:1042C0006246CB40411A8A401100481E81410B438F
:1042D0003400534494E7FE22661C324264D1002C21
:1042E00000D082E06346002B00D1ABE05346002BA8
:1042F00000D160E7634652469B1A5A0100D4AAE0F7
:10430000634652460D00D31A44E75246002A23D092
:10431000012252429046C1444A46002A75D0FF2CE1
:1043200000D05FE796E7FE260134264253D10028ED
:1043300072D16346002B00D193E05346002B00D18D
:1043400039E7634400245A0102D54A4A0134134034
:104350005A0700D020E7DB08FF2C00D17AE75B0288
:104360005F0AE0B227E7FF20002724E7414B241A29
:1043700033400FE7FF2E00D16AE780236246DB045B
:104380001A43944601231B2809DC20246346624615
:10439000C340201A82401000441EA04103435246ED
:1043A0000D003400D31ADCE6634652469E1A7301B0
:1043B00017D4002E00D0D9E6002500200027FAE609
:1043C0006346002B44D0013900294CD0FF2E00D089
:1043D00071E743463EE7FF2CC5D05246624453087E
:1043E000B6E763460D00D61AC0E66246002A16D12B
:1043F0005346002B00D02BE780270025FF20FF032A
:10440000D9E60D0043463400A6E753466344F7E679
:10441000634652469B1AA4E66246002AD9D0524609
:10442000002A00D116E78022D203134200D111E7FF
:104430004046104200D00DE70AE752460D00340016
:10444000D31A8EE65346002B08D00D004746B2E63D
:104450004346340080E7002B00D079E70025002791
:10446000A9E64746A7E6534634006344C8E6C0467B
:10447000FFFFFF7DFFFFFFFB41024200C30F490A20
:104480000020120E7E2A03D99D2A02D9094A9818C3
:104490007047802000040143952A07DC9620821A89
:1044A000D1404842002BF3D10800F1E7963A914001
:1044B000F7E7C046FFFFFF7F70B5051E0ED0FFF780
:1044C000AFFB9E2304001B1A962B0CDC082801DD91
:1044D000083CA5406D026D0AD8B201E0002000251D
:1044E000C005284370BD992B09DD020029001B324D
:1044F00091404A1E91410522121AD5400D43052CC8
:1045000001DD621F95402900084E31406A0709D03D
:104510000F202840042805D004314A0102D59F23EA
:1045200031401B1B89014D0AD8B2D9E7FFFFFFFBC1
:10453000F0B54F46D64646460D0001001800C0B5FE
:1045400017002B035A0A4B0F1343CA00914602036C
:104550006E004100520AEC0F7D0F1543760D490D98
:10456000C00F8246AC46FF00721A844200D198E028
:10457000002A00DC81E0002900D1B6E0C9498E4262
:1045800000D172E180212800090408438446382ABA
:1045900000DD5EE11F2A00DDEEE1202039006546E6
:1045A000801A8740D14085400D4339004F1EB941E4
:1045B0006746D7402943DB1B4A46551AA94589411E
:1045C00049425B1A984643461B0200D4CCE043465E
:1045D0005B025B0A98464346002B00D12CE1404623
:1045E000FFF71EFB01000839202228004346521A1B
:1045F0008B40D0408D4003438E4200DD17E18E1B7F
:10460000721C1F2A00DDA7E1202118002E00891A44
:104610008D408840D640D340691E8D413043984636
:10462000002605436B0709D00F232B40042B05D030
:104630002B1DAB42AD416D42A8441D0043461B02F9
:1046400000D494E0974B721C9A4200D19DE0414601
:10465000954BED0819400B00520549075B022943B1
:104660001B0B520D12051343E407234308001900E6
:104670001CBC90469946A246F0BD002A43D08A1B36
:10468000002E00D02AE14C461C4300D1D1E1541E3B
:10469000012A00D11FE2834DAA4200D172E222001A
:1046A00023E1002A00DC98E0002942D07D498E42B7
:1046B00000D1DAE080212800090408438446382A22
:1046C00000DD29E11F2A00DC87E111006546203961
:1046D000CD40202A04D040206146821A91400F43E9
:1046E00039004F1EB9410D431BE12900394300D168
:1046F000B5E0511E012A00D1ABE16A48824200D1E7
:10470000B2E10A0043E76949751C0D4200D0CFE0D1
:10471000002E00D093E14946194300D1D1E1614612
:10472000394300D0E3E149465807C9080143DB0893
:1047300026E02900394300D191E0511E012A05D01D
:104740005848824200D18FE10A00B8E73D004D444D
:104750004D45894163449846494288444346022670
:104760001B0200D5EBE0013E6B0700D05CE743463F
:10477000E9085A0711433200DB084A48824221D037
:104780001B0352051B0B520D6CE70023002169E748
:104790002A003A4369D04A465807D108DA088023EC
:1047A0001B0308431A4207D02900ED081D4203D11C
:1047B0002A00FF0848073843430FC1005B07C908B8
:1047C000194313000A001A4300D113E28022120396
:1047D00013431B03334A1B0B44E7002A4BD08A1BAD
:1047E000002E00D1E7E02F48814200D195E18020E2
:1047F00000040343382A00DD43E11F2A00DDDBE12A
:1048000020201D004E46801A8540D64035434E4636
:1048100086403000D340461EB0419C440543ED190C
:10482000BD429B415B42634498460E007FE01E4AB6
:10483000761A13409846F5E62800FFF7F1F90100D3
:1048400018311F2900DCCFE62B00083883400025F3
:10485000D2E662463A4311004F1EB941ACE64946E2
:104860005807C9080143DB0887E749465A07C908C2
:104870001143DB08A6E70D49701C084200D0BBE0DD
:10488000002E00D014E14946194300D175E12900FA
:10489000394300D07EE149465807C9080143DB0887
:1048A0006EE7C046FF070000FFFF7FFFFE07000026
:1048B0004946CD1B6146581AA94589414942884657
:1048C00001004046091A8846090200D5A6E0414683
:1048D000294300D07FE60023002451E7C74CA142C2
:1048E00000D1C7E0802424042343382A54DC1F2A43
:1048F00000DDCCE020244846A41A1D004E46A0400E
:10490000D640A5400400D34062463543661EB441FC
:10491000D31A9C46254344E062463A4315006F1E75
:10492000BD414D444D4589414942884698444346DE
:104930001B0200D418E7B14B01369E4249D04246D3
:10494000AF4B01211A4013006A080D401543D907E7
:104950005B0898460D4365E618001F3EF040202A8C
:1049600003D040218A1A93401D43691E8D410023C4
:10497000002698460543F7E6110065462039CD40EC
:10498000202A04D040206146821A91400F4339000A
:104990004F1EB94129430FE64A4613431D006B1EC3
:1049A0009D417D1BAF429B4162465B42D31A9846B4
:1049B00054460E0007E64846184300D1B3E0501EA7
:1049C000012A00D10DE18D4DAA4200D1A5E00200DF
:1049D00010E732000023002144E620213800891A24
:1049E00065468F408D40D040791E8F4105433D4341
:1049F0006746D740DB1994E7804A904200D1ECE04B
:104A00003900494449459241634452429B18DD07AD
:104A100049085B08984606000D43A5E64A46BD1ABC
:104A2000AF42894162464942D31A5B1A98465446BE
:104A3000D1E56C07F9082143EB0804009DE64A46DE
:104A40001A4375D16146394314D1802300241B03D6
:104A5000BCE64A46D51BA9458941624649429B1A94
:104A60005B1A98460126AEE54A46D1085A0711431B
:104A7000DB08A7E66346F9085A0754461143DB08EA
:104A8000A0E64A4613431D006B1E9D41C7E6140075
:104A90001E00203CE640202A05D04024A21A934064
:104AA0004A461A4391464D466B1E9D41354378E771
:104AB0004A461A4300D06BE66B07F9081943EB0826
:104AC00080E66146394354D06346F9085C072143C8
:104AD000DB08040054E64A46BD1AAF4289416246EB
:104AE0004942D31A5B1A9846040001266BE54A46F0
:104AF000D51BA9458941624649429A1A521A9046E5
:104B0000120232D54A46BD1AAF4289416246494235
:104B1000D31A5B1A9846040084E56346F9085A07DD
:104B20001143DB084EE6F90868070143EB0824E669
:104B300062463A4300D198E64A46D1085A071143E3
:104B4000DA0880231B031A4208D06046C5081D42BC
:104B500004D154462A00F908430719434B0FC900F2
:104B60005B07C908194313002CE64146294300D0CE
:104B7000FAE500230A00002402E66B07F90819434E
:104B8000EB08FDE56346F9085B071943634604003B
:104B9000DB0817E63D004D4463444D458941984686
:104BA0004942884443461B0200D4DDE54246144B8B
:104BB00001261A409046D7E510001E002038C64056
:104BC000202A05D04020821A93404A461A43914633
:104BD0004D466B1E9D41354321E602000023002116
:104BE00040E54A46D519BD42894163449846494249
:104BF0008844B3E50021014A0B0033E5FF070000BC
:104C0000FFFF7FFFF0B557464E464546DE46E0B50E
:104C1000814605000C03480092461F0085B0240B16
:104C2000400DCE0F002859D0874B984200D198E014
:104C30006B0FE4001C4380231B0423439846834BE3
:104C4000ED009B4600239946834400933C037B0080
:104C50005046240B5B0DFF0F002B67D07A4A93421E
:104C600018D07A49420F8C46E400594614438022FA
:104C700063441204CB1A14439B46C2000020330045
:104C80007B409A464B460F2B00D9EFE070499B00C2
:104C9000CB589F466F4B52469C462243E344002A22
:104CA00000D095E04946022319438946002402209A
:104CB000E5E700230024002552461B052343D207C5
:104CC00013432800190005B03CBC90469946A24603
:104CD000AB46F0BD002400255B4BEDE74B4623437C
:104CE000984600D189E0002C00D1E0E12000FEF7D9
:104CF00097FF010002000B391D235B1A4946100083
:104D0000D940083884400B004D46234398468540DF
:104D100051483C03831A9B460023994600937B002D
:104D20005046240B5B0DFF0F002B97D152462243B8
:104D300055D0002C00D1CAE12000FEF771FF02001F
:104D40000B3A1D2301009B1A52460839DA408C4069
:104D5000144352468A40414B58449B4683440020AA
:104D60008DE74B462343984640D108239946063B9E
:104D700000258346009369E7B246009B022BA9D029
:104D8000032B00D111E2012B93D0354A5A44002A5B
:104D900000DC3CE16B0700D0A7E1ED084346DB01F6
:104DA00006D542462F4B1A4090468022D2005A44E4
:104DB0002D4B9A428EDC4346520558075C02054350
:104DC000240B530D78E7BA46A04615000090D4E7AF
:104DD0004A4603231A439146032052464FE7494669
:104DE0000123194389460024012048E70C239946F2
:104DF000093BA0468346009328E7042399460023F5
:104E00009B4601330025009320E7002380249A4627
:104E100000250D4B24034FE7802341461B03194215
:104E200008D01C4206D11C432403BA461500064B89
:104E3000240B41E78024434624031C432403B24649
:104E4000014B240B38E7C046FF07000001FCFFFFC1
:104E50005CCF041001F8FFFF0DFCFFFFF30300001F
:104E6000FF030000FFFFFFFEFE070000444500D2E5
:104E700016E100D111E101235B429C462E00404621
:104E80000025E3442302140E1C431B0C9946230403
:104E90001F0C1202494600920197FEF7D1FD020055
:104EA0007A430B04310C804619438A420BD9012303
:104EB0005B429C460919E0448C4204D88A4202D9DC
:104EC000831E98460919881A4946FEF7B9FD090458
:104ED0008C4631046646019A090C42430300314373
:104EE0008A4204D90919013B8C4200D811E1891A80
:104EF0004246009E12041A43330C1F00100C9046C9
:104F0000029313043204160C32001B0C5A4303960E
:104F10007B4346437843170CBC469B1963449E422F
:104F200003D980267602B44660441E0C301816045D
:104F30001B04360C9E19814200D29CE000D197E000
:104F4000AE1B091AB54280414042081A844200D182
:104F500011E14946FEF774FD019A0B044243310CFE
:104F6000050019438A4207D90919013D8C4203D82B
:104F70008A4201D9851E0919881A4946FEF760FD43
:104F800009048C4631046646019A090C4243030029
:104F900031438A4207D90919013B8C4203D88A421E
:104FA00001D9831E0919039E891A32002D041D435D
:104FB000029F2B041B0C5A437B439C46280C464300
:104FC000130CB444634478439E4203D9802676028E
:104FD000B44660441E0C12041B04120C30189B18BB
:104FE000814206D302D001231D43CEE6002B00D11F
:104FF000CBE661186E1EA14200D2A4E0814200D22D
:10500000C9E000D1D9E03500EDE701256D4201216D
:10501000891A382900DD4CE61F2900DC7FE01F23B8
:105020005B429A1A4346D340202904D04446654A3D
:105030005A44944025436A1E954107222B4315008C
:1050400000241D401A4200D1A1E00F2200241A4082
:10505000042A00D198E01A1D9A429B415B42E41851
:105060001300220200D48FE001230024002523E650
:10507000B54200D364E743465A1E009B9C466544F4
:105080001F009D429B415B421B19C9188C423AD2BA
:10509000884263D860D0904652E7AA4200D9EAE637
:1050A0004346DE0758086B081E43ED07EAE648460C
:1050B000FEF7B6FD01000200153120321C2900DC8C
:1050C0001AE64B46083883400025984620E6FEF74E
:1050D000A7FD03001A00153220301C2A00DC30E640
:1050E0005446083B00229C4035E60F232B40042BFE
:1050F00000D152E605235B42AB429B4104355B4243
:10510000ED0898444AE68C42C5D1AF42C0D99046DA
:1051100016E78A4200D8EAE6831E0919E7E62A4A1A
:1051200028005A44434695409340C8406A1E954122
:10513000444603432B43CC405A0792D00F221A40D7
:10514000042A88D18DE73500814200D04BE7009AD0
:10515000934200D047E718E6AE429CD902235B4257
:105160009C46009BE0449C4665449D429B415B42BB
:105170001B19C918E4E6154A5A44002A00DC44E722
:1051800001230025984409E665076402240BDB0827
:105190001D43002390E5009E023D7200B242BF41D4
:1051A0007F423C1909190092CEE78024434624032C
:1051B0001C432403064B240B7EE5009A9A42EAD353
:1051C0003500C4E73E0400001E040000FF03000099
:1051D000FF07000070B543004602C40FFE201B0EFF
:1051E000591C750A08420CD0E022920094466D07C3
:1051F000360B63441B053343E4072343280019009F
:1052000070BD002B14D1002D1BD02800FEF708FD27
:105210000A281CDC0B232A001B1ADA400300153372
:105220009D400E4B12031B1A5B05160B5B0DE1E74D
:10523000002D09D0320B80263603094B6D0716432B
:10524000D8E700230026D5E70026054BD2E7030068
:105250002A000B3B9A400025E3E7C0468903000083
:10526000FF07000002004B00F0B508035B0D3D4E48
:10527000CC0F400A510F5F1C0843D50037420AD0BB
:1052800039495E18FE2E16DDFF230021DB050B4396
:10529000E0071843F0BD002B06D1284327D0052195
:1052A0008901490ADBB2F1E70543EDD08021C9034A
:1052B000FF230143EAE7002E1CDD920111004A1E84
:1052C0009141C0006D0F014329434B0748D00F2384
:1052D0000B40042B00D004318023DB040B403FD073
:1052E000721CFE2ED0D08901490AD3B2CEE700232A
:1052F0000021CBE73200173222DB80211E22090475
:105300000843921B1F2A1DDD022149428E1B01000A
:10531000F1400E00202A04D0144A94466344984079
:10532000054329004D1EA941314300264B07CED12C
:1053300080200B00C004012203400142D3D1AFE71B
:105340000023ACE70A498C4629006344D1409D40C4
:105350000A00290098404D1EA94101431143E4E78A
:1053600033009DE7FE07000080FCFFFFA2FCFFFF6B
:1053700082FCFFFF8446081C6146FFE71FB500F072
:10538000B3F8002801D40021C8421FBD10B500F0B9
:1053900037F84042013010BD10B500F0A5F80028E4
:1053A00001DB002010BD012010BDC04610B500F08B
:1053B0009BF8002801DD002010BD012010BDC04673
:1053C00010B500F045F8002801DC002010BD0120D8
:1053D00010BDC04610B500F03BF8002801DA0020EF
:1053E00010BD012010BDC04610B5002903D1FEF745
:1053F00017FC203002E0081CFEF712FC10BDC0466E
:1054000070B542004E024C0045026D0A120EC30FE9
:10541000760A240EC90FFF2A0FD0FF2C11D00120CD
:10542000A24200D070BDB542FCD18B420DD0002A03
:10543000F8D12800451EA841F4E70120002DF1D144
:10544000EBE70120002EEDD1E9E70020EAE7C046B6
:10545000F0B5420046024D024C00C30F760A120E10
:105460006D0A240EC80FFF2A1FD0FF2C10D0002A6F
:105470001FD171427141002C01D1002D1ED0002995
:105480000ED183421ED00221581E08400138F0BDC3
:10549000002D26D1002AF4D1714271410029F0D0AB
:1054A0000028F4D101204042F1E7002E19D1FF2C51
:1054B000EED0002CE5D1002DE3D1E4E70020002E52
:1054C000E5D0E0E7A24205DCEADBAE4202D8E7D352
:1054D0000020DCE7414241414842022108400138B6
:1054E000D5E702204042D2E7F0B5420046024D0225
:1054F0004C00C30F760A120E6D0A240EC80FFF2A45
:105500000DD0FF2C0FD0002A23D171427141002C05
:105510000FD1002D0DD10020002E14D00DE0002E53
:1055200010D1FF2C15D1002D0CD1002A03D17142CE
:105530007141002908D1834210D00221581E084031
:10554000013800E00220F0BD0028FCD101204042DB
:10555000F9E7002CEFD1002DEDD1EEE7A24205DCFA
:10556000F2DBAE4202D8EFD30020ECE741424141EA
:105570004842022108400138E5E7C04610B506F070
:10558000F5F800F04BFB002010BD000010B5034BF8
:10559000034A0449044801F059FD10BD9CCF041092
:1055A00090D70410B8CF0410C4CF041010B503492D
:1055B000034801F04BFD04F0ABFF10BDDCCF04103D
:1055C000C4CF041010B5002001F048F9C0B2054B5B
:1055D00018701B78DBB2044A0449054801F036FD17
:1055E00010BDC0464C1C00207CD00410E4CF041039
:1055F000F0CF041070B5134D00E010352C68002C6E
:105600001ED011492000FEF781F90028F5D00F497E
:105610002000FEF77BF90028EFD00D492000FEF7AF
:1056200075F90028E9D00B492000FEF76FF9002832
:10563000E3D0EB68AA682100074806F0F9F9DCE737
:1056400070BDC046BC1900200CD0041020D004103E
:10565000E4CF041034D0041040D0041000B585B05D
:10566000E1235B02009300236A46938101935381F7
:1056700013816946002004F0A3F80349002004F0D8
:1056800069FA05B000BDC0468D56041070B506001D
:105690000D000024AC4205D2305D04F09FFA0134C5
:1056A000A4B2F7E770BD000010B500282BD0802110
:1056B000174AC900174801F01BFD002827D0164BD8
:1056C00000221A8002E00133134A1380124B1B8818
:1056D0001900104AD25C0A2A03D00D2A01D0002AF0
:1056E000F1D101339BB20B480D224254591C89B2AF
:1056F000094A11800A22C254054B00221A80C9B2FD
:1057000001F0AAF903E00021002001F0A5F910BD85
:10571000F8070020F8030020FA070020FEE700B594
:1057200089B00822002106A806F0D1F8082200213D
:1057300001A806F0CCF880235B02049303230393B3
:105740000D33059303A805F093FC00280AD100232C
:1057500001930293102101A805F0B4FD002803D1A4
:1057600009B000BDFFF7DAFFFFF7D8FF00B585B03D
:10577000002302930233019380235B01039301A86A
:1057800005F038FE002801D105B000BDFFF7C6FFC7
:1057900010B504F0B5FBFFF7C2FFFFF7E7FFFFF717
:1057A0005DFF0020FFF7EAFE02E03E2004F02AFA47
:1057B000054B1878C0B2FFF777FF0028F8D0024BEE
:1057C0001B78002BF4D0F0E74C1C002000B583B010
:1057D000134B996D102211439965996D0A400192FE
:1057E000019A996D2022114399659B6D1A40009290
:1057F000009B0C480C4B036007234360033B836012
:105800000023836180221203C2618022120442615C
:105810000222C2600361036204F0BAFB03B000BD60
:1058200000004048040800200060004170B51D4998
:105830000C230B700B3B4B7002338B701A4804F037
:1058400079FC002800D0FEE718498B6A1B0B1B036C
:10585000174A13438B62144C200004F0B5FD052158
:10586000200004F031FC200004F05EFC80B2FEF762
:1058700023FE1049FEF71EFBFFF7ACFC00220E4B87
:10588000FFF7C0F900220023FEF752FEFFF7EAFC03
:10589000051C200004F0CEFD281CFEF727FA80B27C
:1058A00070BDC046FC0700200408002000600041D5
:1058B0005505000000006145E0FFEF4010B51F49AD
:1058C0000D230B700C3B4B7000238B701C4804F0B5
:1058D00031FC002800D0FEE71A498B6A1B0B1B0322
:1058E000194A13438B62164C200004F06DFD05210C
:1058F000200004F0E9FB200004F016FC0300134A2A
:105900001168134A1268481C13D01B111B051B0D8C
:10591000521A9B189800C01840006421FEF794F8B2
:105920000400074804F086FDA0002018400000B2E3
:1059300010BD96225200AF210901E6E700080020C1
:105940000408002000600041FF0F0000601E0010EE
:105950005C1E001010B50849002005F049FB0749FE
:10596000002005F065FB0649012005F061FB3021B0
:10597000012005F03DFB10BD0FC80000F03700000E
:10598000CFFF000010B5FFF7E5FF10BD7047FEE741
:105990007047704710B504F0BFFA10BD10B5002075
:1059A00004F004F910BD000030B585B005000C000E
:1059B00000220B236B44190003A8FAF7F3FC022220
:1059C0000B236B44190003A8FAF7ECFC01220B230C
:1059D0006B44190003A8FAF7E5FC02F0EDFD02F0B4
:1059E00089F8200001F0E2FC0023019301A9302096
:1059F00001F06AFF041E08D003242800FDF77DFE95
:105A000000280AD1200005B030BD019B044A94460D
:105A10006344180005F04CFEEFE70224F2E7C046AD
:105A2000006CDC0210B5002800D00220FDF710FF4A
:105A300010BD10B50400431E9841C0B2FDF708FF29
:105A40002000FDF71CFF10BD70B50500064BC11806
:105A5000302001F017FF041E02D00124200070BD89
:105A6000280005F025FEF9E7009423FD10B505F0A8
:105A700077FE10BD10B582B0040001A9342001F0FA
:105A800023FF019B2370431E9841C0B202B010BD9A
:105A900010B50100342001F0F5FE431E9841C0B25C
:105AA00010BD10B582B0040001A9382001F00CFF30
:105AB000019B2370431E9841C0B202B010BD10B5C7
:105AC0000100382001F0DEFE431E9841C0B210BD37
:105AD00010B5FDF701FF10BD10B502F013FF10BDAA
